:020000040000FA
:04000000FEEFFFF020
:10200000004E304D4357006265616E73004F4B00C8
:0120100000CF
:10201200056E6CEF12F0EBEC1CF0E2EC1CF0F2EC53
:102022001CF0BDEC1CF0B5EF13F0F2EC1CF0E2EC8E
:102032001CF0EBEC1CF0E2EC1CF0EBEC1CF0E2EC24
:102042001CF0EBEC1CF0BDEC1CF0B5EF13F0F2EC65
:102052001CF0E2EC1CF0EBEC1CF0E2EC1CF0F2ECFD
:102062001CF0E2EC1CF0EBEC1CF012EF10F0F2ECC6
:102072001CF01CEF10F0EBEC1CF012EF10F0EBEC8C
:102082001CF0E2EC1CF0EBEC1CF0E2EC1CF0F2ECCD
:102092001CF0E2EC1CF03CEF10F0F2EC1CF02EEF26
:1020A20010F0EBEC1CF0E2EC1CF0EBEC1CF0E2ECC0
:1020B2001CF0EBEC1CF0E2EC1CF0EBEC1CF012EF71
:1020C20010F0EBEC1CF0E2EC1CF0EBEC1CF012EF6D
:1020D20010F0EBEC1CF0E2EC1CF0F2EC1CF0E2EC89
:1020E2001CF0F2EC1CF0E2EC1CF010EF10F0F2EC41
:1020F2001CF0E2EC1CF0EBEC1CF074EF10F0EBECDB
:102102001CF0E2EC1CF0F2EC1CF0E2EC1CF0EBEC4C
:102112001CF04AEF10F0F2EC1CF074EF10F0F2EC4D
:102122001CF020EF10F0F2EC1CF0E2EC1CF0F2ECF0
:102132001CF0E2EC1CF010EF10F0EBEC1CF0E2EC07
:102142001CF0F2EC1CF0E2EC1CF0F2EC1CF020EFC4
:1021520010F0EBEC1CF0E2EC1CF048EF10F0EBECB2
:102162001CF0E2EC1CF0EBEC1CF0E2EC1CF0EBECF3
:102172001CF012EF10F0F2EC1CF0BDEC1CF0B5EF0D
:1021820013F0EBEC1CF0E2EC1CF0EBEC1CF0E2ECDC
:102192001CF010EF10F0EBEC1CF0E2EC1CF0EBEC9E
:1021A2001CF0E2EC1CF0EBEC1CF0E2EC1CF010EF8B
:1021B20010F0EBEC1CF0E2EC1CF0F2EC1CF0E2ECA8
:1021C2001CF0F2EC1CF0BDEC1CF0B5EF13F0F2ECDD
:1021D2001CF0E2EC1CF0EBEC1CF07AEF10F0F2ECED
:1021E2001CF0E2EC1CF0EBEC1CF096EF10F0F2ECC1
:1021F2001CF0E2EC1CF0F2EC1CF0E2EC1CF0EBEC5C
:102202001CF0E2EC1CF0EBEC1CF012EF10F0EBEC2B
:102212001CF0E2EC1CF0F2EC1CF0E2EC1CF0F2EC34
:102222001CF096EF10F0EBEC1CF0E2EC1CF0EBEC87
:102232001CF0E2EC1CF06EEF10F0EBEC1CF0E2ECA8
:102242001CF0EBEC1CF0E2EC1CF0EBEC1CF0E2EC12
:102252001CF0DEEF10F0EBEC1CF0E2EC1CF0EBEC0F
:102262001CF0E2EC1CF0EBEC1CF0E2EC1CF0EBECF2
:102272001CF0E2EC1CF010EF10F0EBEC1CF0E2ECC6
:102282001CF0EBEC1CF0E2EC1CF0EBEC1CF0E2ECD2
:102292001CF0EBEC1CF0E2EC1CF0EBEC1CF012EF8F
:1022A20010F0F2EC1CF0E2EC1CF0EBEC1CF018EF7E
:1022B20010F0F2EC1CF0E2EC1CF0F2EC1CF0E2ECA0
:1022C2001CF0EBEC1CF0E2EC1CF0EBEC1CF0E2EC92
:1022D2001CF0EBEC1CF012EF10F0F2EC1CF0E2EC54
:1022E2001CF0F2EC1CF0E2EC1CF084EF10F0F2ECCB
:1022F2001CF0E2EC1CF0F2EC1CF0E2EC1CF0A2EFA1
:1023020010F0F2EC1CF0E2EC1CF0F2EC1CF0E2EC4F
:102312001CF06EEF10F0EBEC1CF0E2EC1CF0F2ECB7
:102322001CF0E2EC1CF0EBEC1CF0E2EC1CF0F2EC2A
:102332001CF07AEF10F0F2EC1CF0E2EC1CF0F2EC84
:102342001CF0E2EC1CF0EBEC1CF0E2EC1CF0EBEC11
:102352001CF0E2EC1CF0DEEF10F0EBEC1CF0E2EC17
:102362001CF0EBEC1CF0E2EC1CF0F2EC1CF0E2ECEA
:102372001CF0F2EC1CF01CEF10F0F2EC1CF0E2ECA2
:102382001CF0F2EC1CF0E2EC1CF0F2EC1CF0E2ECC3
:102392001CF0EBEC1CF086EF10F0F2EC1CF0E2EC1F
:1023A2001CF0EBEC1CF02AEF10F0F2EC1CF0E2EC6B
:1023B2001CF0EBEC1CF0E2EC1CF0EBEC1CF0EAEF96
:1023C20010F0F2EC1CF0DCEF11F0EBEC1CF0E2ECA4
:1023D2001CF0F2EC1CF0E2EC1CF0F2EC1CF0E2EC73
:1023E2001CF0F2EC1CF0E2EC1CF048EF10F0F2EC06
:1023F2001CF0E2EC1CF0EBEC1CF0E2EC1CF0F2EC5A
:102402001CF0E2EC1CF0F2EC1CF0E2EC1CF0EBEC49
:102412001CF0E0EF10F0EBEC1CF0E2EC1CF0EBEC4B
:102422001CF0E2EC1CF0F2EC1CF096EF11F0F2EC76
:102432001CF0E2EC1CF0EBEC1CF0E2EC1CF0F2EC19
:102442001CF0E2EC1CF0EBEC1CF0E2EC1CF0DEEF1A
:1024520010F0EBEC1CF0E2EC1CF0C6EF11F0EBEC30
:102462001CF0E2EC1CF0F2EC1CF0E2EC1CF0EBECE9
:102472001CF0E2EC1CF0EBEC1CF0A4EF10F0F2EC20
:102482001CF0E2EC1CF0EBEC1CF0E2EC1CF0F2ECC9
:102492001CF0E2EC1CF0EBEC1CF0E2EC1CF048EF60
:1024A20010F0EBEC1CF0E2EC1CF0EBEC1CF0E2ECBC
:1024B2001CF0EBEC1CF0E2EC1CF0F2EC1CF0E2EC99
:1024C2001CF0EBEC1CF006EF12F0BDEC1CF0BDECC6
:1024D2001CF0B5EF13F00550036E046A0450000AB5
:1024E200D8B476EF12F066EF12F00350200AD8B497
:1024F20066EF12F0010AD8B418EF12F0030AD8B44A
:1025020030EF12F0060AD8B452EF12F0020AD8B431
:102512002AEF12F0010AD8B4E6EF11F00F0AD8B48C
:10252200F8EF11F0010AD8B4F8EF11F0050AD8B4A7
:102532009CEF11F0010AD8B4D6EF11F0030AD8B417
:102542008CEF11F0010AD8B4CEEF11F01F0AD8B403
:1025520082EF11F0010AD8B408EF11F0030AD8B4DF
:1025620014EF11F0010AD8B41EEF11F0070AD8B423
:102572002CEF11F0010AD8B43EEF11F0030AD8B4DF
:1025820052EF11F0010AD8B45AEF11F00F0AD8B481
:102592006EEF11F0010AD8B478EF11F0030AD8B443
:1025A200BEEF11F0010AD8B440EF12F0060AD8B417
:1025B200E2EF11F0020AD8B4AEEF11F07E0AD8B4FD
:1025C2000CEF10F0030AD8B416EF10F0010AD8B4D9
:1025D20028EF10F0070AD8B438EF10F0010AD8B487
:1025E2003CEF10F0030AD8B440EF10F0010AD8B45F
:1025F2004EEF10F00F0AD8B452EF10F0010AD8B41F
:1026020062EF10F0030AD8B46AEF10F0010AD8B4EE
:1026120078EF10F0070AD8B480EF10F0010AD8B4AE
:102622008CEF10F0030AD8B490EF10F0010AD8B47E
:1026320094EF10F01F0AD8B49EEF10F0010AD8B43C
:1026420094EF10F0030AD8B4AAEF10F0010AD8B43C
:10265200B0EF10F0070AD8B4BCEF10F0010AD8B4FA
:10266200C2EF10F0030AD8B4CCEF10F0010AD8B4CC
:10267200DAEF10F00F0AD8B4E8EF10F0010AD8B47C
:10268200F0EF10F0030AD8B4F8EF10F0050AD8B44E
:102692000CEF12F03E0AD8B40CEF10F0030AD8B4D3
:1026A20016EF10F0010AD8B428EF10F0070AD8B4D8
:1026B20038EF10F0010AD8B43CEF10F0030AD8B496
:1026C20040EF10F0010AD8B44EEF10F00F0AD8B460
:1026D20052EF10F0010AD8B462EF10F0030AD8B436
:1026E2006AEF10F0010AD8B478EF10F0070AD8B4F4
:1026F20080EF10F0010AD8B48CEF10F0030AD8B4BE
:1027020090EF10F0010AD8B494EF10F01F0AD8B479
:102712009EEF10F0010AD8B494EF10F0030AD8B477
:10272200AAEF10F0010AD8B4B0EF10F0070AD8B43B
:10273200BCEF10F0010AD8B4C2EF10F0030AD8B40B
:10274200CCEF10F0010AD8B4DAEF10F00F0AD8B4C7
:10275200E8EF10F0010AD8B4F0EF10F0030AD8B491
:10276200F8EF10F066EF12F012003650800B3F6E59
:1027720036503624416E35AEC1EF13F0C3EF13F07D
:10278200C4EF13F041804150D8B4CAEF13F0CCEF3C
:1027920013F0E1EF13F04128D8A4D2EF13F0D4EFF5
:1027A20013F0DCEF13F0000E336E000E346E000EE9
:1027B200356E000E366E358E000E366EE9EF13F072
:1027C200000E336E000E346E000E356E000E366E45
:1027D2003A50800B406E3F504018D8B4F3EF13F0DC
:1027E200F5EF13F0F6EF13F03F8C3A503A24406EB7
:1027F20039AEFEEF13F000EF14F001EF14F0408059
:102802004050D8B407EF14F009EF14F01EEF14F0A3
:102812004028D8A40FEF14F011EF14F019EF14F0C0
:10282200000E376E000E386E000E396E000E3A6ED4
:10283200398E000E3A6E26EF14F0000E376E000E3F
:10284200386E000E396E000E3A6E4150405CD8B0C0
:102852002DEF14F02FEF14F056EF14F03FAC34EFDD
:1028620014F036EF14F038EF14F0800E3F1A41C026
:1028720042F040C041F042C040F033C042F037C0A5
:1028820033F042C037F034C042F038C034F042C0B6
:1028920038F035C042F039C035F042C039F036C0A8
:1028A20042F03AC036F042C03AF0000E426E415059
:1028B20040C03BF03C6A3B5E000E3C5A3CBE6BEFB4
:1028C20014F03C5009E11A0E3B5CD8A06BEF14F0F7
:1028D2006DEF14F0A4EF14F03350341035103610AD
:1028E200D8A476EF14F079EF14F0010E7AEF14F019
:1028F200000E426E000E336E000E346E000E356E08
:10290200000E366E40C041F0ADEF14F042A08CEFE5
:1029120014F08EEF14F094EF14F0D89042300109C5
:10292200426E96EF14F0D890423233A09BEF14F02F
:102932009DEF14F09EEF14F0428E3634363235326B
:1029420034323332412A4050415CD8A0ABEF14F00C
:10295200ADEF14F087EF14F03FBCB2EF14F0B4EF18
:1029620014F0F4EF14F04150D8A4BAEF14F0BCEF15
:1029720014F0C6EF14F0000E336E000E346E000E2B
:10298200356E000E366E15EF16F03750332638507E
:102992003422395035223A50362236A0D3EF14F081
:1029A200D5EF14F081EF15F042A0DAEF14F0DCEF6E
:1029B20014F0E2EF14F0D89042300109426EE4EFD5
:1029C20014F0D890423233A0E9EF14F0EBEF14F098
:1029D200ECEF14F0428E3634363235323432333242
:1029E200412A81EF15F03750335C38503458395052
:1029F20035583650800A3B6E3A50800A3B58D8B060
:102A020005EF15F007EF15F032EF15F03350375C94
:102A12003B6E345038583C6E355039583D6E365006
:102A22003A583E6EFF0E3B24336EFF0E3C20346E4E
:102A3200FF0E3D20356EFF0E3E20366E800E3F1A91
:102A4200426C4250D8A428EF15F02AEF15F03AEF65
:102A520015F0010E3326000E3422352236223AEFCB
:102A620015F03750335E3850345A3950355A3A508F
:102A7200365A3350341035103610D8A443EF15F0BF
:102A820045EF15F07AEF15F04250D8A44BEF15F050
:102A92004DEF15F07AEF15F0000E336E000E346E26
:102AA200000E356E000E366E15EF16F0D8903336E6
:102AB20034363536363642AE61EF15F063EF15F037
:102AC20064EF15F0338042A069EF15F06BEF15F05B
:102AD2006FEF15F0D880423671EF15F0D89042367C
:102AE2004150D8B477EF15F079EF15F07AEF15F081
:102AF200410635AE7FEF15F081EF15F057EF15F077
:102B0200000E406E42AE88EF15F08AEF15F0A2EF8C
:102B120015F042C03BF07F0E3B16D8B493EF15F090
:102B220095EF15F099EF15F0010E406EA2EF15F03A
:102B320033A09EEF15F0A0EF15F0A2EF15F095EF80
:102B420015F04050D8B4A8EF15F0AAEF15F0D5EF64
:102B520015F0010E3326000E34223522362236A01D
:102B6200B5EF15F0B7EF15F0D5EF15F033C03BF028
:102B720034C03CF035C03DF036C03EF03E343E320B
:102B82003D323C323B323BC033F03CC034F03DC0BE
:102B920035F03EC036F04128D8B4D2EF15F0D4EF6C
:102BA20015F0D5EF15F0412A4128D8B4DBEF15F026
:102BB200DDEF15F0E5EF15F04150D8A4E3EF15F085
:102BC200E5EF15F0F7EF15F0000E336E000E346EE0
:102BD200000E356E000E366E4150D8A4F3EF15F09C
:102BE200F5EF15F0F7EF15F0000E3F6E41A0FCEF88
:102BF20015F0FEEF15F001EF16F0358E02EF16F02C
:102C0200359ED8904130366E3FAE0AEF16F00CEF8B
:102C120016F00DEF16F0368E33C033F034C034F0B8
:102C220035C035F036C036F012001D50800B266ECE
:102C32001D501D242C6E1CAE21EF16F023EF16F052
:102C420024EF16F02C802C50D8B42AEF16F02CEF7B
:102C520016F03FEF16F02C28D8A432EF16F034EF1E
:102C620016F03CEF16F0000E1A6E000E1B6E000EF0
:102C72001C6E000E1D6E1C8E47EF16F0000E1A6EB3
:102C8200000E1B6E000E1C6E000E1D6E2150800B7E
:102C9200261A215021242B6E20AE52EF16F054EF4B
:102CA20016F055EF16F02B802B50D8B45BEF16F0D0
:102CB2005DEF16F070EF16F02B28D8A463EF16F034
:102CC20065EF16F06DEF16F0000E1E6E000E1F6E11
:102CD200000E206E000E216E208E78EF16F0000E90
:102CE2001E6E000E1F6E000E206E000E216E2B5007
:102CF200D8B47EEF16F080EF16F088EF16F02C5065
:102D0200D8A486EF16F088EF16F092EF16F0000EB8
:102D12001A6E000E1B6E000E1C6E000E1D6E3CEF36
:102D220018F020501A026F00CCFF31F06F00D0FF74
:102D320032F03150276E286A296A2A6A32502D6E83
:102D42002E6A2F6A306A1F501B026F00CCFF31F0CF
:102D52006F00D0FF32F031502726000E28222922A0
:102D62002A2232502D26000E2E222F2230221E50D1
:102D72001C026F00CCFF31F06F00D0FF32F03150F7
:102D82002726000E282229222A2232502D26000E22
:102D92002E222F22302229C02AF028C029F027C053
:102DA20028F0276A1E501B026F00CCFF31F06F0023
:102DB200D0FF32F03150272632502822000E29222D
:102DC200000E2A221F501A026F00CCFF31F06F0052
:102DD200D0FF32F03150272632502822000E29220D
:102DE200000E2A2229C02AF028C029F027C028F084
:102DF200276A1E501A026F00CCFF31F06F00D0FF1D
:102E020032F03150272632502822000E2922000E9D
:102E12002A2220501B026F00CCFF31F06F00D0FF3E
:102E220032F031502D2632502E22000E2F22000E6B
:102E320030221F501C026F00CCFF31F06F00D0FF18
:102E420032F031502D2632502E22000E2F22000E4B
:102E5200302220501C026F00CCFF31F06F00D0FFF7
:102E620032F03150226E3250236E246A256A24C019
:102E720025F023C024F022C023F0226A22502D26FE
:102E820023502E2224502F222550302227C022F0F8
:102E920028C023F029C024F02AC025F0190E57EFCC
:102EA20017F0D8902532243223322232E82E52EF04
:102EB20017F022502D2623502E2224502F22255047
:102EC200302229C02AF028C029F027C028F0276A1A
:102ED2002B502CC022F0236A2226000E2322820EBF
:102EE2002224316EFF0E2320326E8DEF17F0D89020
:102EF2002D362E362F3630362AAE82EF17F084EF7B
:102F020017F085EF17F02D80D8902736283629360E
:102F12002A363106D8A032062FAE92EF17F094EF80
:102F220017F078EF17F0000E2B6E2AAE9BEF17F01A
:102F32009DEF17F0C1EF17F0FF0E2714226EFF0E60
:102F42002814236EFF0E2914246E7F0E2A14256E78
:102F52002250231024102510D8B4B2EF17F0B4EF8A
:102F620017F0B8EF17F0010E2B6EC1EF17F02DA07E
:102F7200BDEF17F0BFEF17F0C1EF17F0B4EF17F086
:102F82002B50D8B4C7EF17F0C9EF17F0EDEF17F0D9
:102F9200010E2D26000E2E222F22302230A0D4EF39
:102FA20017F0D6EF17F0EDEF17F02DC022F02EC07C
:102FB20023F02FC024F030C025F0253425322432EE
:102FC2002332223222C02DF023C02EF024C02FF053
:102FD20025C030F0314A322A32BEF8EF17F03250B3
:102FE20008E13128D8A0F8EF17F0FAEF17F004EF54
:102FF20018F0000E2D6E000E2E6E800E2F6E7F0EBC
:10300200306E32EF18F032BE11EF18F0325006E196
:103012003104D8B00FEF18F011EF18F01DEF18F0CF
:10302200000E2D6E000E2E6E000E2F6E000E306EF4
:10303200000E266E32EF18F031C02CF0FF0E2D1666
:10304200FF0E2E167F0E2F16000E30162CA02CEF20
:1030520018F02EEF18F02FEF18F02F8ED8902C309A
:10306200306E265030122DC01AF02EC01BF02FC029
:103072001CF030C01DF012000450800B116E045081
:103082000424186E03AE48EF18F04AEF18F04BEF25
:1030920018F018801850D8B451EF18F053EF18F008
:1030A20068EF18F01828D8A459EF18F05BEF18F061
:1030B20063EF18F0000E016E000E026E000E036E3A
:1030C200000E046E038E000E046E70EF18F0000EF8
:1030D200016E000E026E000E036E000E046E0850AA
:1030E200800B111A08500824196E07AE7BEF18F0F6
:1030F2007DEF18F07EEF18F019801950D8B484EFE4
:1031020018F086EF18F09BEF18F01928D8A48CEF6E
:1031120018F08EEF18F096EF18F0000E056E000E04
:10312200066E000E076E000E086E078E000E086E09
:10313200A3EF18F0000E056E000E066E000E076E6D
:10314200000E086E0550061007100810D8A4ACEF48
:1031520018F0AEEF18F0C6EF18F0000E016E000E78
:10316200026E000E036E000E046E800E03127F0EBE
:1031720004121150041201C001F002C002F003C097
:1031820003F004C004F009EF1AF01850D8A4CCEFF1
:1031920018F0CEEF18F0D8EF18F0000E016E000E06
:1031A200026E000E036E000E046E09EF1AF0195043
:1031B20018C009F00A6A095E000E0A5A7F0E092435
:1031C200126E000E0A20136E01C00DF002C00EF046
:1031D20003C00FF004C010F0000E016E000E026E6C
:1031E200000E036E000E046E000E146E000E156EBD
:1031F200000E166E000E176E000E196E39EF19F0E2
:103202001950D8B407EF19F009EF19F020EF19F0AF
:10321200D8900D360E360F361036D890013602365B
:103222000336043617AE18EF19F01AEF19F01BEF38
:1032320019F00180D8901436153616361736055017
:103242000D5C06500E5807500F5808501058D8A061
:103252002DEF19F02FEF19F038EF19F0178C0550F8
:103262000D5E06500E5A07500F5A0850105A192A6E
:10327200190E19643FEF19F041EF19F001EF19F03F
:103282000D500E100F101010D8B44AEF19F04CEF79
:1032920019F064EF19F0148064EF19F0D890013638
:1032A20002360336043617AE59EF19F05BEF19F008
:1032B2005CEF19F00180D8901436153616361736A1
:1032C2001206D8A0130603AE69EF19F06BEF19F0DE
:1032D2004FEF19F0000E196E17AE72EF19F074EF7E
:1032E20019F098EF19F0FF0E1414096EFF0E151461
:1032F2000A6EFF0E16140B6E7F0E17140C6E095019
:103302000A100B100C10D8B489EF19F08BEF19F0DA
:103312008FEF19F0010E196E98EF19F001A094EFDA
:1033220019F096EF19F098EF19F08BEF19F0195088
:10333200D8B49EEF19F0A0EF19F0C4EF19F0010E06
:103342000126000E02220322042204A0ABEF19F090
:10335200ADEF19F0C4EF19F001C009F002C00AF094
:1033620003C00BF004C00CF00C340C320B320A32E6
:10337200093209C001F00AC002F00BC003F00CC010
:1033820004F0124A132A13BECFEF19F0135008E1CA
:103392001228D8A0CFEF19F0D1EF19F0DCEF19F015
:1033A200000E136E1268000E016E000E026E000E09
:1033B200036E000E046E13BEE9EF19F0135006E11E
:1033C2001204D8B0E7EF19F0E9EF19F0F7EF19F0AE
:1033D200000E136E000E126E000E016E000E026ED3
:1033E200000E036E000E046E000E116E12C018F075
:1033F20018A0FEEF19F000EF1AF003EF1AF0038E97
:1034020004EF1AF0039ED8901830046EBAEF18F049
:103412001200096E0950D8B411EF1AF013EF1AF026
:1034220035EF1AF004BE1AEF1AF018EF1AF035EF62
:103432001AF001C005F002C006F003C007F004C094
:1034420008F0051E061E071E081E052A000E06228B
:103452000722082205C00BF006C00CF007C00DF0D1
:1034620008C00EF03DEF1AF001C00BF002C00CF0E4
:1034720003C00DF004C00EF001500210031004103E
:10348200D8A446EF1AF048EF1AF052EF1AF0000EE5
:10349200016E000E026E000E036E000E046EE3EF6C
:1034A2001AF0960E0A6E5CEF1AF00A2AD8900E32C3
:1034B2000D320C320B32000E0B14056E000E0C1482
:1034C200066E000E0D14076EFE0E0E14086E0550E9
:1034D200061007100810D8A471EF1AF073EF1AF053
:1034E20056EF1AF081EF1AF00A2A010E0B26000E8F
:1034F2000C220D220E22D8900E320D320C320B32DB
:10350200000E0B14056E000E0C14066E000E0D1448
:10351200076EFF0E0E14086E0550061007100810F5
:10352200D8A496EF1AF098EF1AF075EF1AF0A0EF00
:103532001AF00A06D8900B360C360D360E360DBE32
:10354200A5EF1AF0A7EF1AF0AFEF1AF0020E0A6019
:10355200ADEF1AF0AFEF1AF09AEF1AF00AB0B4EF2B
:103562001AF0B6EF1AF0B7EF1AF00D9ED8900A32A1
:103572000AC005F0066A076A086A05C008F0076A09
:10358200066A056A05500B1206500C1207500D12FE
:1035920008500E120950D8B4D1EF1AF0D3EF1AF036
:1035A200DBEF1AF004BEDAEF1AF0D8EF1AF0DBEF15
:1035B2001AF00E8E0BC001F00CC002F00DC003F029
:1035C2000EC004F012004DC01EF04EC01FF04FC0DE
:1035D20020F050C021F051C005F052C006F053C097
:1035E20007F054C008F0000E016E000E026E800E4D
:1035F200036E3F0E046E3DEC18F001C01AF002C0DB
:103602001BF003C01CF004C01DF016EC16F01AC02B
:1036120060F01BC061F01CC062F01DC063F0000EC0
:10362200376E000E386E000E396EBF0E3A6E000E07
:10363200056E000E066E800E076E400E086E60C0AC
:1036420001F061C002F062C003F063C004F03DEC1F
:1036520018F001C033F002C034F003C035F004C0EA
:1036620036F0B6EC13F033C043F034C044F035C04A
:1036720045F036C046F0A5EC1BF043C066F044C0EE
:1036820067F0000E376E000E386E000E396E3F0E78
:103692003A6E66C055F067C056F0D8905536563629
:1036A200020E5526000E562255C001F056C002F0F9
:1036B200036A046A000E0AEC1AF001C033F002C079
:1036C20034F003C035F004C036F0B6EC13F033C06A
:1036D20043F034C044F035C045F036C046F0A5ECA6
:1036E2001BF043C068F044C069F0030E0001681586
:1036F200646F656BC484000E6E6E60009BF1ABFF5D
:1037020064C055F0553A554655466C5055183F0B16
:1037120055186C6E68C055F069C056F0D890563294
:103722005532D8905632553255506D6E3901A495A6
:10373200AE808F0EAC16AC8EA4A5A2EF1BF0A4EF48
:103742001BF09DEF1BF01200453446344C6E4C507A
:10375200D8A4AEEF1BF0B0EF1BF0BAEF1BF0000ED7
:10376200436E000E446E000E456E000E466E27EF4D
:103772001CF043C047F044C048F045C049F046C081
:103782004AF0200ECAEF1BF0D8904A324932483232
:103792004732E82EC5EF1BF047504B6E458EFF0EA9
:1037A2004316FF0E4416FF0E4516000E4616960EE1
:1037B2004C5E4CBEE1EF1BF0DFEF1BF0F7EF1BF0AE
:1037C2004C50800A970FD8B0E9EF1BF0EBEF1BF0DB
:1037D200EDEF1BF0B0EF1BF0D89046324532443289
:1037E20043324C3EEDEF1BF00FEF1CF01F0E4C640A
:1037F200FDEF1BF0FFEF1BF007EF1CF0B0EF1BF02B
:10380200D89043364436453646364C064C50D8A4FA
:103812000DEF1CF00FEF1CF001EF1CF04B50D8B471
:1038220015EF1CF017EF1CF01FEF1CF0461E451E93
:10383200441E436C000E44224522462243C043F0FC
:1038420044C044F045C045F046C046F01200000EA8
:103852003A01406FC280C292C4983901D851F80B24
:103862000309D86FD88DCAA039EF1CF03BEF1CF0CA
:1038720034EF1CF000D000D000D000F0CAB044EF0A
:103882001CF046EF1CF03FEF1CF03901D89D000EF2
:103892004D6E300E4E6EF20E4F6E460E506E000E94
:1038A200516E800E526E090E536E440E546EE4EC4D
:1038B2001AF0000E036E3C0E026E9AEC1CF0070E1C
:1038C200066E200E076E000E096E050E086E70EC75
:1038D2001CF0F9EC1CF06CEF1CF0FEEFFFF0000E98
:1038E2000D6E000E0C6E8AEF1CF00C5006240A6E50
:1038F2000D5007200B6E60002BF0F6FF60002FF0DA
:10390200F7FF000EF86E0800F55009EC10F00C4AB3
:103912000D2A08500C5C09500D58D8A093EF1CF0EA
:1039220095EF1CF076EF1CF0BDEC1CF0BDEC1CF02A
:1039320012003C01FB99FB91FE51E00B0809FE6F5E
:10394200FC51E00B0109FC6F280E3A01146F3C0197
:10395200FA8FA280A0508F0B6009A06E070E9F6E97
:10396200A150E00B0809A16E010ED4EC1CF002C0BC
:1039720057F003C058F01200000E026E000E016EE6
:10398200E2EC1CF0014A022A02BED1EF1CF0025006
:1039920009E1030E015CD8A0D1EF1CF0D3EF1CF0BB
:1039A200C1EF1CF01200016E0150D8B4DBEF1CF025
:1039B200DDEF1CF0E0EF1CF06E8EE1EF1CF06E9E6E
:1039C2001200A08EA0BEE8EF1CF0EAEF1CF0E3EFBD
:1039D2001CF012003C01FA81E2EC1CF03C01FA916D
:1039E20012003C01FA81BDEC1CF03C01FA9112007C
:1039F2003C01FA9F000ED4EC1CF01200586A576A80
:0E3A0200000128EF1CF0000E6E6EAC9E12004C
:020000040001F9
:04FFFC00FFEF1CF007
:020000040020DA
:10000000FF0FFF0FFF0FFF0FFF0FFF0FFF0FFF0F80
:020000040030CA
:0A000000DCFFFFFF9FFFFFDFFFFFA3
:00000001FF
