:020000040000FA
:0400000057EF00F0C6
:100008002B002B002B002B002B002B002B002B0090
:100018002B002B002B002B002B002B002B002B0080
:100028002B002B002B002B002B002B002B002B0070
:100038002B002B002B002B002B002B002B002B0060
:10004800A80E2B002B002B002B002B002B002B00C5
:100058002B002B002B002B002B002B002B002B0040
:100068002B002B002B002B002B002B002B002B0030
:100078002B002B002B002B002B002B002B002B0020
:100088002B002B002B002B002B002B002B002B0010
:100098002B002B002B002B002B002B002B002B0000
:0A00A8002B002B00FF0060EF1DF09D
:1020000000476F6F64206C75636B004E304D435713
:10201000004F4B200000056E6EEF12F08DEC1DF0AE
:102020007CEC1DF094EC1DF038EC1DF0B7EF13F0D4
:1020300094EC1DF07CEC1DF08DEC1DF07CEC1DF0A3
:102040008DEC1DF07CEC1DF08DEC1DF038EC1DF0DE
:10205000B7EF13F094EC1DF07CEC1DF08DEC1DF04F
:102060007CEC1DF094EC1DF07CEC1DF08DEC1DF073
:1020700014EF10F094EC1DF01EEF10F08DEC1DF03D
:1020800014EF10F08DEC1DF07CEC1DF08DEC1DF0CC
:102090007CEC1DF094EC1DF07CEC1DF03EEF10F09C
:1020A00094EC1DF030EF10F08DEC1DF07CEC1DF089
:1020B0008DEC1DF07CEC1DF08DEC1DF07CEC1DF02A
:1020C0008DEC1DF014EF10F08DEC1DF07CEC1DF08C
:1020D0008DEC1DF014EF10F08DEC1DF07CEC1DF07C
:1020E00094EC1DF07CEC1DF094EC1DF07CEC1DF0EC
:1020F00012EF10F094EC1DF07CEC1DF08DEC1DF057
:1021000076EF10F08DEC1DF07CEC1DF094EC1DF0E2
:102110007CEC1DF08DEC1DF04CEF10F094EC1DF0FC
:1021200076EF10F094EC1DF022EF10F094EC1DF01F
:102130007CEC1DF094EC1DF07CEC1DF012EF10F027
:102140008DEC1DF07CEC1DF094EC1DF07CEC1DF092
:1021500094EC1DF022EF10F08DEC1DF07CEC1DF0E6
:102160004AEF10F08DEC1DF07CEC1DF08DEC1DF0B5
:102170007CEC1DF08DEC1DF014EF10F094EC1DF0D4
:1021800038EC1DF0B7EF13F08DEC1DF07CEC1DF07A
:102190008DEC1DF07CEC1DF012EF10F08DEC1DF0BD
:1021A0007CEC1DF08DEC1DF07CEC1DF08DEC1DF039
:1021B0007CEC1DF012EF10F08DEC1DF07CEC1DF0AE
:1021C00094EC1DF07CEC1DF094EC1DF038EC1DF04F
:1021D000B7EF13F094EC1DF07CEC1DF08DEC1DF0CE
:1021E0007CEF10F094EC1DF07CEC1DF08DEC1DF0FC
:1021F00098EF10F094EC1DF07CEC1DF094EC1DF0C9
:102200007CEC1DF08DEC1DF07CEC1DF08DEC1DF0D8
:1022100014EF10F08DEC1DF07CEC1DF094EC1DF033
:102220007CEC1DF094EC1DF098EF10F08DEC1DF09F
:102230007CEC1DF08DEC1DF07CEC1DF070EF10F0CF
:102240008DEC1DF07CEC1DF08DEC1DF07CEC1DF098
:102250008DEC1DF07CEC1DF0E0EF10F08DEC1DF02E
:102260007CEC1DF08DEC1DF07CEC1DF08DEC1DF078
:102270007CEC1DF08DEC1DF07CEC1DF012EF10F0ED
:102280008DEC1DF07CEC1DF08DEC1DF07CEC1DF058
:102290008DEC1DF07CEC1DF08DEC1DF07CEC1DF048
:1022A0008DEC1DF014EF10F094EC1DF07CEC1DF0A3
:1022B0008DEC1DF01AEF10F094EC1DF07CEC1DF08D
:1022C00094EC1DF07CEC1DF08DEC1DF07CEC1DF011
:1022D0008DEC1DF07CEC1DF08DEC1DF014EF10F07A
:1022E00094EC1DF07CEC1DF094EC1DF07CEC1DF0EA
:1022F00086EF10F094EC1DF07CEC1DF094EC1DF0DA
:102300007CEC1DF0A4EF10F094EC1DF07CEC1DF0C3
:1023100094EC1DF07CEC1DF070EF10F08DEC1DF0D6
:102320007CEC1DF094EC1DF07CEC1DF08DEC1DF0B0
:102330007CEC1DF094EC1DF07CEF10F094EC1DF0A3
:102340007CEC1DF094EC1DF07CEC1DF08DEC1DF090
:102350007CEC1DF08DEC1DF07CEC1DF0E0EF10F03E
:102360008DEC1DF07CEC1DF08DEC1DF07CEC1DF077
:1023700094EC1DF07CEC1DF094EC1DF01EEF10F0C1
:1023800094EC1DF07CEC1DF094EC1DF07CEC1DF049
:1023900094EC1DF07CEC1DF08DEC1DF088EF10F03E
:1023A00094EC1DF07CEC1DF08DEC1DF02CEF10F08A
:1023B00094EC1DF07CEC1DF08DEC1DF07CEC1DF020
:1023C0008DEC1DF0ECEF10F094EC1DF0DEEF11F051
:1023D0008DEC1DF07CEC1DF094EC1DF07CEC1DF000
:1023E00094EC1DF07CEC1DF094EC1DF07CEC1DF0E9
:1023F0004AEF10F094EC1DF07CEC1DF08DEC1DF01C
:102400007CEC1DF094EC1DF07CEC1DF094EC1DF0C8
:102410007CEC1DF08DEC1DF0E2EF10F08DEC1DF06A
:102420007CEC1DF08DEC1DF07CEC1DF094EC1DF0AF
:1024300098EF11F094EC1DF07CEC1DF08DEC1DF08C
:102440007CEC1DF094EC1DF07CEC1DF08DEC1DF08F
:102450007CEC1DF0E0EF10F08DEC1DF07CEC1DF03D
:10246000C8EF11F08DEC1DF07CEC1DF094EC1DF02C
:102470007CEC1DF08DEC1DF07CEC1DF08DEC1DF066
:10248000A6EF10F094EC1DF07CEC1DF08DEC1DF02F
:102490007CEC1DF094EC1DF07CEC1DF08DEC1DF03F
:1024A0007CEC1DF04AEF10F08DEC1DF07CEC1DF083
:1024B0008DEC1DF07CEC1DF08DEC1DF07CEC1DF026
:1024C00094EC1DF07CEC1DF08DEC1DF008EF12F08B
:1024D00038EC1DF038EC1DF0B7EF13F00550036E2B
:1024E000046A0450000AD8B478EF12F068EF12F0D2
:1024F0000350200AD8B468EF12F0010AD8B41AEFDA
:1025000012F0030AD8B432EF12F0060AD8B454EF2E
:1025100012F0020AD8B42CEF12F0010AD8B4E8EF96
:1025200011F00F0AD8B4FAEF11F0010AD8B4FAEF9B
:1025300011F0050AD8B49EEF11F0010AD8B4D8EF13
:1025400011F0030AD8B48EEF11F0010AD8B4D0EF1D
:1025500011F01F0AD8B484EF11F0010AD8B40AEFC1
:1025600011F0030AD8B416EF11F0010AD8B420EF25
:1025700011F0070AD8B42EEF11F0010AD8B440EFD9
:1025800011F0030AD8B454EF11F0010AD8B45CEF8B
:1025900011F00F0AD8B470EF11F0010AD8B47AEF35
:1025A00011F0030AD8B4C0EF11F0010AD8B442EF19
:1025B00012F0060AD8B4E4EF11F0020AD8B4B0EF72
:1025C00011F07E0AD8B40EEF10F0030AD8B418EF59
:1025D00010F0010AD8B42AEF10F0070AD8B43AEF85
:1025E00010F0010AD8B43EEF10F0030AD8B442EF5D
:1025F00010F0010AD8B450EF10F00F0AD8B454EF1D
:1026000010F0010AD8B464EF10F0030AD8B46CEFEC
:1026100010F0010AD8B47AEF10F0070AD8B482EFAC
:1026200010F0010AD8B48EEF10F0030AD8B492EF7C
:1026300010F0010AD8B496EF10F01F0AD8B4A0EF3A
:1026400010F0010AD8B496EF10F0030AD8B4ACEF3A
:1026500010F0010AD8B4B2EF10F0070AD8B4BEEFF8
:1026600010F0010AD8B4C4EF10F0030AD8B4CEEFCA
:1026700010F0010AD8B4DCEF10F00F0AD8B4EAEF7A
:1026800010F0010AD8B4F2EF10F0030AD8B4FAEF50
:1026900010F0050AD8B40EEF12F03E0AD8B40EEFCF
:1026A00010F0030AD8B418EF10F0010AD8B42AEFDA
:1026B00010F0070AD8B43AEF10F0010AD8B43EEF90
:1026C00010F0030AD8B442EF10F0010AD8B450EF6A
:1026D00010F00F0AD8B454EF10F0010AD8B464EF28
:1026E00010F0030AD8B46CEF10F0010AD8B47AEFF6
:1026F00010F0070AD8B482EF10F0010AD8B48EEFB8
:1027000010F0030AD8B492EF10F0010AD8B496EF93
:1027100010F01F0AD8B4A0EF10F0010AD8B496EF59
:1027200010F0030AD8B4ACEF10F0010AD8B4B2EF3D
:1027300010F0070AD8B4BEEF10F0010AD8B4C4EF05
:1027400010F0030AD8B4CEEF10F0010AD8B4DCEFD1
:1027500010F00F0AD8B4EAEF10F0010AD8B4F2EF83
:1027600010F0030AD8B4FAEF10F068EF12F012007C
:102770003650800B3F6E36503624416E35AEC3EF77
:1027800013F0C5EF13F0C6EF13F041804150D8B4F9
:10279000CCEF13F0CEEF13F0E3EF13F04128D8A401
:1027A000D4EF13F0D6EF13F0DEEF13F0000E336E1C
:1027B000000E346E000E356E000E366E358E000E35
:1027C000366EEBEF13F0000E336E000E346E000E1B
:1027D000356E000E366E3A50800B406E3F504018FA
:1027E000D8B4F5EF13F0F7EF13F0F8EF13F03F8CD8
:1027F0003A503A24406E39AE00EF14F002EF14F074
:1028000003EF14F040804050D8B409EF14F00BEF00
:1028100014F020EF14F04028D8A411EF14F013EFB7
:1028200014F01BEF14F0000E376E000E386E000E21
:10283000396E000E3A6E398E000E3A6E28EF14F0A3
:10284000000E376E000E386E000E396E000E3A6EB6
:102850004150405CD8B02FEF14F031EF14F058EF36
:1028600014F03FAC36EF14F038EF14F03AEF14F0F8
:10287000800E3F1A41C042F040C041F042C040F0DB
:1028800033C042F037C033F042C037F034C042F0BA
:1028900038C034F042C038F035C042F039C035F0AD
:1028A00042C039F036C042F03AC036F042C03AF089
:1028B000000E426E415040C03BF03C6A3B5E000E51
:1028C0003C5A3CBE6DEF14F03C5009E11A0E3B5CE3
:1028D000D8A06DEF14F06FEF14F0A6EF14F03350A2
:1028E000341035103610D8A478EF14F07BEF14F0C4
:1028F000010E7CEF14F0000E426E000E336E000EDF
:10290000346E000E356E000E366E40C041F0AFEFF3
:1029100014F042A08EEF14F090EF14F096EF14F044
:10292000D89042300109426E98EF14F0D8904232AC
:1029300033A09DEF14F09FEF14F0A0EF14F0428E3F
:1029400036343632353234323332412A4050415CEB
:10295000D8A0ADEF14F0AFEF14F089EF14F03FBC46
:10296000B4EF14F0B6EF14F0F6EF14F04150D8A421
:10297000BCEF14F0BEEF14F0C8EF14F0000E336E8D
:10298000000E346E000E356E000E366E17EF16F028
:102990003750332638503422395035223A503622B7
:1029A00036A0D5EF14F0D7EF14F083EF15F042A066
:1029B000DCEF14F0DEEF14F0E4EF14F0D8904230C6
:1029C0000109426EE6EF14F0D890423233A0EBEFEB
:1029D00014F0EDEF14F0EEEF14F0428E3634363290
:1029E000353234323332412A83EF15F03750335CBD
:1029F00038503458395035583650800A3B6E3A506A
:102A0000800A3B58D8B007EF15F009EF15F034EF06
:102A100015F03350375C3B6E345038583C6E3550AF
:102A200039583D6E36503A583E6EFF0E3B24336E99
:102A3000FF0E3C20346EFF0E3D20356EFF0E3E2013
:102A4000366E800E3F1A426C4250D8A42AEF15F021
:102A50002CEF15F03CEF15F0010E3326000E34225A
:102A6000352236223CEF15F03750335E3850345A59
:102A70003950355A3A50365A3350341035103610D2
:102A8000D8A445EF15F047EF15F07CEF15F0425054
:102A9000D8A44DEF15F04FEF15F07CEF15F0000EB8
:102AA000336E000E346E000E356E000E366E17EF6C
:102AB00016F0D890333634363536363642AE63EFBC
:102AC00015F065EF15F066EF15F0338042A06BEF5F
:102AD00015F06DEF15F071EF15F0D880423673EFF9
:102AE00015F0D89042364150D8B479EF15F07BEF0D
:102AF00015F07CEF15F0410635AE81EF15F083EF50
:102B000015F059EF15F0000E406E42AE8AEF15F049
:102B10008CEF15F0A4EF15F042C03BF07F0E3B1692
:102B2000D8B495EF15F097EF15F09BEF15F0010E67
:102B3000406EA4EF15F033A0A0EF15F0A2EF15F052
:102B4000A4EF15F097EF15F04050D8B4AAEF15F0A8
:102B5000ACEF15F0D7EF15F0010E3326000E34223E
:102B60003522362236A0B7EF15F0B9EF15F0D7EFC2
:102B700015F033C03BF034C03CF035C03DF036C0FA
:102B80003EF03E343E323D323C323B323BC033F0CD
:102B90003CC034F03DC035F03EC036F04128D8B4DA
:102BA000D4EF15F0D6EF15F0D7EF15F0412A4128F4
:102BB000D8B4DDEF15F0DFEF15F0E7EF15F0415079
:102BC000D8A4E5EF15F0E7EF15F0F9EF15F0000EDA
:102BD000336E000E346E000E356E000E366E4150B0
:102BE000D8A4F5EF15F0F7EF15F0F9EF15F0000E9A
:102BF0003F6E41A0FEEF15F000EF16F003EF16F068
:102C0000358E04EF16F0359ED8904130366E3FAECB
:102C10000CEF16F00EEF16F00FEF16F0368E33C0F5
:102C200033F034C034F035C035F036C036F0120021
:102C30001D50800B266E1D501D242C6E1CAE23EFE4
:102C400016F025EF16F026EF16F02C802C50D8B495
:102C50002CEF16F02EEF16F041EF16F02C28D8A42A
:102C600034EF16F036EF16F03EEF16F0000E1A6E47
:102C7000000E1B6E000E1C6E000E1D6E1C8E49EFAA
:102C800016F0000E1A6E000E1B6E000E1C6E000E6B
:102C90001D6E2150800B261A215021242B6E20AE50
:102CA00054EF16F056EF16F057EF16F02B802B501E
:102CB000D8B45DEF16F05FEF16F072EF16F02B2828
:102CC000D8A465EF16F067EF16F06FEF16F0000E60
:102CD0001E6E000E1F6E000E206E000E216E208EE6
:102CE0007AEF16F0000E1E6E000E1F6E000E206EA4
:102CF000000E216E2B50D8B480EF16F082EF16F044
:102D00008AEF16F02C50D8A488EF16F08AEF16F050
:102D100094EF16F0000E1A6E000E1B6E000E1C6E65
:102D2000000E1D6E3EEF18F020501A026F00CCFF0F
:102D300031F06F00D0FF32F03150276E286A296AD7
:102D40002A6A32502D6E2E6A2F6A306A1F501B027B
:102D50006F00CCFF31F06F00D0FF32F031502726EA
:102D6000000E282229222A2232502D26000E2E2241
:102D70002F2230221E501C026F00CCFF31F06F005A
:102D8000D0FF32F031502726000E282229222A2295
:102D900032502D26000E2E222F22302229C02AF05A
:102DA00028C029F027C028F0276A1E501B026F0098
:102DB000CCFF31F06F00D0FF32F031502726325077
:102DC0002822000E2922000E2A221F501A026F000C
:102DD000CCFF31F06F00D0FF32F031502726325057
:102DE0002822000E2922000E2A2229C02AF028C0FB
:102DF00029F027C028F0276A1E501A026F00CCFF66
:102E000031F06F00D0FF32F03150272632502822A7
:102E1000000E2922000E2A2220501B026F00CCFF38
:102E200031F06F00D0FF32F031502D2632502E227B
:102E3000000E2F22000E30221F501C026F00CCFF0C
:102E400031F06F00D0FF32F031502D2632502E225B
:102E5000000E2F22000E302220501C026F00CCFFEB
:102E600031F06F00D0FF32F03150226E3250236EBD
:102E7000246A256A24C025F023C024F022C023F050
:102E8000226A22502D2623502E2224502F222550F4
:102E9000302227C022F028C023F029C024F02AC005
:102EA00025F0190E59EF17F0D8902532243223322D
:102EB0002232E82E54EF17F022502D2623502E22D6
:102EC00024502F222550302229C02AF028C029F072
:102ED00027C028F0276A2B502CC022F0236A222614
:102EE000000E2322820E2224316EFF0E2320326E2A
:102EF0008FEF17F0D8902D362E362F3630362AAE7B
:102F000084EF17F086EF17F087EF17F02D80D89039
:102F10002736283629362A363106D8A032062FAE73
:102F200094EF17F096EF17F07AEF17F0000E2B6E74
:102F30002AAE9DEF17F09FEF17F0C3EF17F0FF0ECB
:102F40002714226EFF0E2814236EFF0E2914246E00
:102F50007F0E2A14256E2250231024102510D8B479
:102F6000B4EF17F0B6EF17F0BAEF17F0010E2B6EB3
:102F7000C3EF17F02DA0BFEF17F0C1EF17F0C3EFAD
:102F800017F0B6EF17F02B50D8B4C9EF17F0CBEF0E
:102F900017F0EFEF17F0010E2D26000E2E222F2234
:102FA000302230A0D6EF17F0D8EF17F0EFEF17F080
:102FB0002DC022F02EC023F02FC024F030C025F009
:102FC0002534253224322332223222C02DF023C070
:102FD0002EF024C02FF025C030F0314A322A32BE04
:102FE000FAEF17F0325008E13128D8A0FAEF17F0C5
:102FF000FCEF17F006EF18F0000E2D6E000E2E6E8F
:10300000800E2F6E7F0E306E34EF18F032BE13EF4D
:1030100018F0325006E13104D8B011EF18F013EF78
:1030200018F01FEF18F0000E2D6E000E2E6E000E21
:103030002F6E000E306E000E266E34EF18F031C089
:103040002CF0FF0E2D16FF0E2E167F0E2F16000EE3
:1030500030162CA02EEF18F030EF18F031EF18F0EA
:103060002F8ED8902C30306E265030122DC01AF092
:103070002EC01BF02FC01CF030C01DF012000450F9
:10308000800B116E04500424186E03AE4AEF18F042
:103090004CEF18F04DEF18F018801850D8B453EFDB
:1030A00018F055EF18F06AEF18F01828D8A45BEF65
:1030B00018F05DEF18F065EF18F0000E016E000ECD
:1030C000026E000E036E000E046E038E000E046E80
:1030D00072EF18F0000E016E000E026E000E036E0D
:1030E000000E046E0850800B111A08500824196E47
:1030F00007AE7DEF18F07FEF18F080EF18F0198021
:103100001950D8B486EF18F088EF18F09DEF18F03A
:103110001928D8A48EEF18F090EF18F098EF18F057
:10312000000E056E000E066E000E076E000E086E95
:10313000078E000E086EA5EF18F0000E056E000E4B
:10314000066E000E076E000E086E05500610071082
:103150000810D8A4AEEF18F0B0EF18F0C8EF18F0D0
:10316000000E016E000E026E000E036E000E046E65
:10317000800E03127F0E04121150041201C001F0E0
:1031800002C002F003C003F004C004F00BEF1AF019
:103190001850D8A4CEEF18F0D0EF18F0DAEF18F0EE
:1031A000000E016E000E026E000E036E000E046E25
:1031B0000BEF1AF0195018C009F00A6A095E000EE8
:1031C0000A5A7F0E0924126E000E0A20136E01C0E7
:1031D0000DF002C00EF003C00FF004C010F0000E9E
:1031E000016E000E026E000E036E000E046E000EE5
:1031F000146E000E156E000E166E000E176E000E89
:10320000196E3BEF19F01950D8B409EF19F00BEF14
:1032100019F022EF19F0D8900D360E360F36103611
:10322000D890013602360336043617AE1AEF19F07D
:103230001CEF19F01DEF19F00180D89014361536E7
:103240001636173605500D5C06500E5807500F58AD
:1032500008501058D8A02FEF19F031EF19F03AEFBD
:1032600019F0178C05500D5E06500E5A07500F5A74
:103270000850105A192A190E196441EF19F043EF3A
:1032800019F003EF19F00D500E100F101010D8B4F4
:103290004CEF19F04EEF19F066EF19F0148066EF5D
:1032A00019F0D890013602360336043617AE5BEFBC
:1032B00019F05DEF19F05EEF19F00180D890143627
:1032C0001536163617361206D8A0130603AE6BEF66
:1032D00019F06DEF19F051EF19F0000E196E17AEDD
:1032E00074EF19F076EF19F09AEF19F0FF0E14143D
:1032F000096EFF0E15140A6EFF0E16140B6E7F0E6C
:1033000017140C6E09500A100B100C10D8B48BEF68
:1033100019F08DEF19F091EF19F0010E196E9AEF77
:1033200019F001A096EF19F098EF19F09AEF19F043
:103330008DEF19F01950D8B4A0EF19F0A2EF19F0E1
:10334000C6EF19F0010E0126000E0222032204220C
:1033500004A0ADEF19F0AFEF19F0C6EF19F001C0FE
:1033600009F002C00AF003C00BF004C00CF00C34EA
:103370000C320B320A32093209C001F00AC002F0E5
:103380000BC003F00CC004F0124A132A13BED1EF95
:1033900019F0135008E11228D8A0D1EF19F0D3EF9B
:1033A00019F0DEEF19F0000E136E1268000E016EB8
:1033B000000E026E000E036E000E046E13BEEBEFE5
:1033C00019F0135006E11204D8B0E9EF19F0EBEF51
:1033D00019F0F9EF19F0000E136E000E126E000EC8
:1033E000016E000E026E000E036E000E046E000EE3
:1033F000116E12C018F018A000EF1AF002EF1AF0C8
:1034000005EF1AF0038E06EF1AF0039ED8901830DD
:10341000046EBCEF18F01200096E0950D8B413EF17
:103420001AF015EF1AF037EF1AF004BE1CEF1AF07D
:103430001AEF1AF037EF1AF001C005F002C006F0DB
:1034400003C007F004C008F0051E061E071E081E74
:10345000052A000E06220722082205C00BF006C02E
:103460000CF007C00DF008C00EF03FEF1AF001C0DD
:103470000BF002C00CF003C00DF004C00EF00150C0
:10348000021003100410D8A448EF1AF04AEF1AF003
:1034900054EF1AF0000E016E000E026E000E036E65
:1034A000000E046EE5EF1AF0960E0A6E5EEF1AF04B
:1034B0000A2AD8900E320D320C320B32000E0B1449
:1034C000056E000E0C14066E000E0D14076EFE0E37
:1034D0000E14086E0550061007100810D8A473EFDC
:1034E0001AF075EF1AF058EF1AF083EF1AF00A2A63
:1034F000010E0B26000E0C220D220E22D8900E3249
:103500000D320C320B32000E0B14056E000E0C1433
:10351000066E000E0D14076EFF0E0E14086E055099
:10352000061007100810D8A498EF1AF09AEF1AF0B6
:1035300077EF1AF0A2EF1AF00A06D8900B360C3685
:103540000D360E360DBEA7EF1AF0A9EF1AF0B1EF47
:103550001AF0020E0A60AFEF1AF0B1EF1AF09CEF0A
:103560001AF00AB0B6EF1AF0B8EF1AF0B9EF1AF085
:103570000D9ED8900A320AC005F0066A076A086AEA
:1035800005C008F0076A066A056A05500B12065066
:103590000C1207500D1208500E120950D8B4D3EF78
:1035A0001AF0D5EF1AF0DDEF1AF004BEDCEF1AF0D6
:1035B000DAEF1AF0DDEF1AF00E8E0BC001F00CC03E
:1035C00002F00DC003F00EC004F0120085EC1DF0F7
:1035D0003901D851F80B0309D86FD88DCAA0F3EF81
:1035E0001AF0F5EF1AF0EEEF1AF0CAB0FAEF1AF08F
:1035F000FCEF1AF0F5EF1AF03901D89D000E4D6E70
:10360000300E4E6EF20E4F6E460E506E000E516E24
:10361000800E526E090E536E440E546EA7EC1BF0D2
:10362000000E036E3C0E026E15EC1DF0010E5C6E7A
:10363000010E5B6E010E5A6ECA82010E066E200EDE
:10364000076E000E096E090E086EEBEC1CF0A1EC83
:103650001DF09BEC1DF0A7EC1DF09BEF1BF05B50E9
:10366000D8B435EF1BF037EF1BF064EF1BF0B290CE
:103670005A50D8B43EEF1BF040EF1BF043EF1BF065
:10368000CA825DEF1BF0000E036E3C0E026E15EC5D
:103690001DF00B0E066E200E076E000E096E060E54
:1036A000086EEBEC1CF0060E576E070EE82EFED7E8
:1036B000572EFCD7CA92A1EC1DF0000E5B6E1C0EBB
:1036C000B16EF20EB06EB280CAA069EF1BF06BEF64
:1036D0001BF09BEF1BF0CAB070EF1BF072EF1BF0FA
:1036E0006BEF1BF0CA82060E576E070EE82EFED750
:1036F000572EFCD7000E036E3C0E026E15EC1DF02B
:10370000110E066E200E076E000E096E020E086E78
:10371000EBEC1CF00B0E066E200E076E000E096E11
:10372000060E086EEBEC1CF0A1EC1DF0ADEC1DF0EC
:10373000CA92000E5C6E5C50D8A4A1EF1BF0A3EF00
:103740001BF02FEF1BF0E8EF1AF057EF00F04DC021
:103750001EF04EC01FF04FC020F050C021F051C0ED
:1037600005F052C006F053C007F054C008F0000E38
:10377000016E000E026E800E036E3F0E046E3FEC73
:1037800018F001C01AF002C01BF003C01CF004C006
:103790001DF018EC16F01AC060F01BC061F01CC0E0
:1037A00062F01DC063F0000E376E000E386E000E22
:1037B000396EBF0E3A6E000E056E000E066E800E5C
:1037C000076E400E086E60C001F061C002F062C07A
:1037D00003F063C004F03FEC18F001C033F002C006
:1037E00034F003C035F004C036F0B8EC13F033C049
:1037F00043F034C044F035C045F036C046F068ECC4
:103800001CF043C066F044C067F0000E376E000E37
:10381000386E000E396E3F0E3A6E66C055F067C0C6
:1038200056F0D89055365636020E5526000E5622C2
:1038300055C001F056C002F0036A046A000E0CEC99
:103840001AF001C033F002C034F003C035F004C0F8
:1038500036F0B8EC13F033C043F034C044F035C058
:1038600045F036C046F068EC1CF043C068F044C038
:1038700069F0030E00016815646F656BC484000E67
:103880006E6E60009BF1ABFF64C055F0553A554633
:1038900055466C5055183F0B55186C6E68C055F066
:1038A00069C056F0D89056325532D89056325532BB
:1038B00055506D6E3901A495AE808F0EAC16AC8E4E
:1038C000A4A565EF1CF067EF1CF060EF1CF0120080
:1038D000453446344C6E4C50D8A471EF1CF073EF55
:1038E0001CF07DEF1CF0000E436E000E446E000EC7
:1038F000456E000E466EEAEF1CF043C047F044C030
:1039000048F045C049F046C04AF0200E8DEF1CF04B
:10391000D8904A32493248324732E82E88EF1CF0BC
:1039200047504B6E458EFF0E4316FF0E4416FF0E9A
:103930004516000E4616960E4C5E4CBEA4EF1CF0CB
:10394000A2EF1CF0BAEF1CF04C50800A970FD8B0D1
:10395000ACEF1CF0AEEF1CF0B0EF1CF073EF1CF0FE
:10396000D89046324532443243324C3EB0EF1CF0E0
:10397000D2EF1CF01F0E4C64C0EF1CF0C2EF1CF025
:10398000CAEF1CF073EF1CF0D8904336443645362E
:1039900046364C064C50D8A4D0EF1CF0D2EF1CF0A9
:1039A000C4EF1CF04B50D8B4D8EF1CF0DAEF1CF089
:1039B000E2EF1CF0461E451E441E436C000E4422DE
:1039C0004522462243C043F044C044F045C045F080
:1039D00046C046F01200000E0D6E000E0C6E05EF94
:1039E0001DF00C5006240A6E0D5007200B6E60006F
:1039F0002BF0F6FF60002FF0F7FF000EF86E0800C6
:103A0000F5500BEC10F00C4A0D2A08500C5C0950D4
:103A10000D58D8A00EEF1DF010EF1DF0F1EF1CF0C7
:103A200038EC1DF038EC1DF012003C01FB99FB91C5
:103A3000FE51E00B0809FE6FFC51E00B0109FC6F21
:103A4000280E3A01146F3C01FA8FA280A0508F0B10
:103A50006009A06E070E9F6EA150E00B0809A16ED1
:103A6000010E6EEC1DF002C058F003C059F01200B8
:103A7000000E026E000E016E7CEC1DF0014A022A5F
:103A800002BE4CEF1DF0025009E1030E015CD8A00C
:0E3A90004CEF1DF04EEF1DF03CEF1DF012004C
:103AA0003901A491010E5B6E5A50D8B45AEF1DF043
:103AB0005DEF1DF0010E5EEF1DF0000E5A6E11005D
:103AC0005C6A5B6A5A6A596A586A080ED56E000EBB
:103AD000D66E000ED76E0001E6EF1AF0016E0150AF
:103AE000D8B475EF1DF077EF1DF07AEF1DF06E8EF4
:103AF0007BEF1DF06E9E1200A08EA0BE82EF1DF027
:103B000084EF1DF07DEF1DF01200000E3A01406FB2
:103B1000C280C292C498CA9212003C01FA817CEC25
:103B20001DF03C01FA9112003C01FA8138EC1DF0C5
:103B30003C01FA911200D29AD28E39019481A4915B
:103B400012003C01FA9F000E6EEC1DF01200300EC8
:103B5000B212010EB56EB39E1200000E6E6EAC9ED8
:023B6000120051
:020000040020DA
:10000000FF0FFF0FFF0FFF0FFF0FFF0FFF0FFF0F80
:020000040030CA
:0A000000DCFFFFFF9FFFFFDFFFFFA3
:00000001FF
