:020000040000FA
:0400000057EF00F0C6
:100008002B002B002B002B002B002B002B002B0090
:100018002B002B002B002B002B002B002B002B0080
:100028002B002B002B002B002B002B002B002B0070
:100038002B002B002B002B002B002B002B002B0060
:10004800A70E2B002B002B002B002B002B002B00C6
:100058002B002B002B002B002B002B002B002B0040
:100068002B002B002B002B002B002B002B002B0030
:100078002B002B002B002B002B002B002B002B0020
:100088002B002B002B002B002B002B002B002B0010
:100098002B002B002B002B002B002B002B002B0000
:0A00A8002B002B00FF005EEF1DF09F
:1020000000476F6F64206C75636B004E304D435713
:05201000004F4B000031
:10201600056E6EEF12F08AEC1DF07AEC1DF091EC75
:102026001DF036EC1DF0B7EF13F091EC1DF07AECD5
:102036001DF08AEC1DF07AEC1DF08AEC1DF07AECAE
:102046001DF08AEC1DF036EC1DF0B7EF13F091ECA5
:102056001DF07AEC1DF08AEC1DF07AEC1DF091EC87
:102066001DF07AEC1DF08AEC1DF014EF10F091ECE7
:102076001DF01EEF10F08AEC1DF014EF10F08AEC44
:102086001DF07AEC1DF08AEC1DF07AEC1DF091EC57
:102096001DF07AEC1DF03EEF10F091EC1DF030EFE4
:1020A60010F08AEC1DF07AEC1DF08AEC1DF07AEC4B
:1020B6001DF08AEC1DF07AEC1DF08AEC1DF014EF91
:1020C60010F08AEC1DF07AEC1DF08AEC1DF014EF8E
:1020D60010F08AEC1DF07AEC1DF091EC1DF07AEC14
:1020E6001DF091EC1DF07AEC1DF012EF10F091EC62
:1020F6001DF07AEC1DF08AEC1DF076EF10F08AECFC
:102106001DF07AEC1DF091EC1DF07AEC1DF08AECD6
:102116001DF04CEF10F091EC1DF076EF10F091EC05
:102126001DF022EF10F091EC1DF07AEC1DF091EC11
:102136001DF07AEC1DF012EF10F08AEC1DF07AEC2F
:102146001DF091EC1DF07AEC1DF091EC1DF022EFE4
:1021560010F08AEC1DF07AEC1DF04AEF10F08AECD4
:102166001DF07AEC1DF08AEC1DF07AEC1DF08AEC7D
:102176001DF014EF10F091EC1DF036EC1DF0B7EFEA
:1021860013F08AEC1DF07AEC1DF08AEC1DF07AEC67
:102196001DF012EF10F08AEC1DF07AEC1DF08AECBF
:1021A6001DF07AEC1DF08AEC1DF07AEC1DF012EFB2
:1021B60010F08AEC1DF07AEC1DF091EC1DF07AEC33
:1021C6001DF091EC1DF036EC1DF0B7EF13F091EC1D
:1021D6001DF07AEC1DF08AEC1DF07CEF10F091EC0E
:1021E6001DF07AEC1DF08AEC1DF098EF10F091ECE2
:1021F6001DF07AEC1DF091EC1DF07AEC1DF08AECE6
:102206001DF07AEC1DF08AEC1DF014EF10F08AEC4C
:102216001DF07AEC1DF091EC1DF07AEC1DF091ECBE
:102226001DF098EF10F08AEC1DF07AEC1DF08AECA8
:102236001DF07AEC1DF070EF10F08AEC1DF07AECD0
:102246001DF08AEC1DF07AEC1DF08AEC1DF07AEC9C
:102256001DF0E0EF10F08AEC1DF07AEC1DF08AEC30
:102266001DF07AEC1DF08AEC1DF07AEC1DF08AEC7C
:102276001DF07AEC1DF012EF10F08AEC1DF07AECEE
:102286001DF08AEC1DF07AEC1DF08AEC1DF07AEC5C
:102296001DF08AEC1DF07AEC1DF08AEC1DF014EFAF
:1022A60010F091EC1DF07AEC1DF08AEC1DF01AEF9F
:1022B60010F091EC1DF07AEC1DF091EC1DF07AEC2B
:1022C6001DF08AEC1DF07AEC1DF08AEC1DF07AEC1C
:1022D6001DF08AEC1DF014EF10F091EC1DF07AEC75
:1022E6001DF091EC1DF07AEC1DF086EF10F091ECEC
:1022F6001DF07AEC1DF091EC1DF07AEC1DF0A4EFC8
:1023060010F091EC1DF07AEC1DF091EC1DF07AECDA
:102316001DF070EF10F08AEC1DF07AEC1DF091ECD8
:102326001DF07AEC1DF08AEC1DF07AEC1DF091ECB4
:102336001DF07CEF10F091EC1DF07AEC1DF091ECA5
:102346001DF07AEC1DF08AEC1DF07AEC1DF08AEC9B
:102356001DF07AEC1DF0E0EF10F08AEC1DF07AEC3F
:102366001DF08AEC1DF07AEC1DF091EC1DF07AEC74
:102376001DF091EC1DF01EEF10F091EC1DF07AECC3
:102386001DF091EC1DF07AEC1DF091EC1DF07AEC4D
:102396001DF08AEC1DF088EF10F091EC1DF07AEC40
:1023A6001DF08AEC1DF02CEF10F091EC1DF07AEC8C
:1023B6001DF08AEC1DF07AEC1DF08AEC1DF0ECEFB6
:1023C60010F091EC1DF0DEEF11F08AEC1DF07AECC6
:1023D6001DF091EC1DF07AEC1DF091EC1DF07AECFD
:1023E6001DF091EC1DF07AEC1DF04AEF10F091EC27
:1023F6001DF07AEC1DF08AEC1DF07AEC1DF091ECE4
:102406001DF07AEC1DF091EC1DF07AEC1DF08AECD3
:102416001DF0E2EF10F08AEC1DF07AEC1DF08AEC6C
:102426001DF07AEC1DF091EC1DF098EF11F091EC97
:102436001DF07AEC1DF08AEC1DF07AEC1DF091ECA3
:102446001DF07AEC1DF08AEC1DF07AEC1DF0E0EF41
:1024560010F08AEC1DF07AEC1DF0C8EF11F08AEC52
:102466001DF07AEC1DF091EC1DF07AEC1DF08AEC73
:102476001DF07AEC1DF08AEC1DF0A6EF10F091EC41
:102486001DF07AEC1DF08AEC1DF07AEC1DF091EC53
:102496001DF07AEC1DF08AEC1DF07AEC1DF04AEF87
:1024A60010F08AEC1DF07AEC1DF08AEC1DF07AEC47
:1024B6001DF08AEC1DF07AEC1DF091EC1DF07AEC23
:1024C6001DF08AEC1DF008EF12F036EC1DF036EC2C
:1024D6001DF0B7EF13F00550036E046A0450000AAE
:1024E600D8B478EF12F068EF12F00350200AD8B48F
:1024F60068EF12F0010AD8B41AEF12F0030AD8B442
:1025060032EF12F0060AD8B454EF12F0020AD8B429
:102516002CEF12F0010AD8B4E8EF11F00F0AD8B484
:10252600FAEF11F0010AD8B4FAEF11F0050AD8B49F
:102536009EEF11F0010AD8B4D8EF11F0030AD8B40F
:102546008EEF11F0010AD8B4D0EF11F01F0AD8B4FB
:1025560084EF11F0010AD8B40AEF11F0030AD8B4D7
:1025660016EF11F0010AD8B420EF11F0070AD8B41B
:102576002EEF11F0010AD8B440EF11F0030AD8B4D7
:1025860054EF11F0010AD8B45CEF11F00F0AD8B479
:1025960070EF11F0010AD8B47AEF11F0030AD8B43B
:1025A600C0EF11F0010AD8B442EF12F0060AD8B40F
:1025B600E4EF11F0020AD8B4B0EF11F07E0AD8B4F5
:1025C6000EEF10F0030AD8B418EF10F0010AD8B4D1
:1025D6002AEF10F0070AD8B43AEF10F0010AD8B47F
:1025E6003EEF10F0030AD8B442EF10F0010AD8B457
:1025F60050EF10F00F0AD8B454EF10F0010AD8B417
:1026060064EF10F0030AD8B46CEF10F0010AD8B4E6
:102616007AEF10F0070AD8B482EF10F0010AD8B4A6
:102626008EEF10F0030AD8B492EF10F0010AD8B476
:1026360096EF10F01F0AD8B4A0EF10F0010AD8B434
:1026460096EF10F0030AD8B4ACEF10F0010AD8B434
:10265600B2EF10F0070AD8B4BEEF10F0010AD8B4F2
:10266600C4EF10F0030AD8B4CEEF10F0010AD8B4C4
:10267600DCEF10F00F0AD8B4EAEF10F0010AD8B474
:10268600F2EF10F0030AD8B4FAEF10F0050AD8B446
:102696000EEF12F03E0AD8B40EEF10F0030AD8B4CB
:1026A60018EF10F0010AD8B42AEF10F0070AD8B4D0
:1026B6003AEF10F0010AD8B43EEF10F0030AD8B48E
:1026C60042EF10F0010AD8B450EF10F00F0AD8B458
:1026D60054EF10F0010AD8B464EF10F0030AD8B42E
:1026E6006CEF10F0010AD8B47AEF10F0070AD8B4EC
:1026F60082EF10F0010AD8B48EEF10F0030AD8B4B6
:1027060092EF10F0010AD8B496EF10F01F0AD8B471
:10271600A0EF10F0010AD8B496EF10F0030AD8B46F
:10272600ACEF10F0010AD8B4B2EF10F0070AD8B433
:10273600BEEF10F0010AD8B4C4EF10F0030AD8B403
:10274600CEEF10F0010AD8B4DCEF10F00F0AD8B4BF
:10275600EAEF10F0010AD8B4F2EF10F0030AD8B489
:10276600FAEF10F068EF12F012003650800B3F6E51
:1027760036503624416E35AEC3EF13F0C5EF13F075
:10278600C6EF13F041804150D8B4CCEF13F0CEEF32
:1027960013F0E3EF13F04128D8A4D4EF13F0D6EFEB
:1027A60013F0DEEF13F0000E336E000E346E000EE3
:1027B600356E000E366E358E000E366EEBEF13F06C
:1027C600000E336E000E346E000E356E000E366E41
:1027D6003A50800B406E3F504018D8B4F5EF13F0D6
:1027E600F7EF13F0F8EF13F03F8C3A503A24406EAF
:1027F60039AE00EF14F002EF14F003EF14F040804E
:102806004050D8B409EF14F00BEF14F020EF14F099
:102816004028D8A411EF14F013EF14F01BEF14F0B6
:10282600000E376E000E386E000E396E000E3A6ED0
:10283600398E000E3A6E28EF14F0000E376E000E39
:10284600386E000E396E000E3A6E4150405CD8B0BC
:102856002FEF14F031EF14F058EF14F03FAC36EFD1
:1028660014F038EF14F03AEF14F0800E3F1A41C01E
:1028760042F040C041F042C040F033C042F037C0A1
:1028860033F042C037F034C042F038C034F042C0B2
:1028960038F035C042F039C035F042C039F036C0A4
:1028A60042F03AC036F042C03AF0000E426E415055
:1028B60040C03BF03C6A3B5E000E3C5A3CBE6DEFAE
:1028C60014F03C5009E11A0E3B5CD8A06DEF14F0F1
:1028D6006FEF14F0A6EF14F03350341035103610A5
:1028E600D8A478EF14F07BEF14F0010E7CEF14F00F
:1028F600000E426E000E336E000E346E000E356E04
:10290600000E366E40C041F0AFEF14F042A08EEFDD
:1029160014F090EF14F096EF14F0D89042300109BD
:10292600426E98EF14F0D890423233A09DEF14F027
:102936009FEF14F0A0EF14F0428E36343632353263
:1029460034323332412A4050415CD8A0ADEF14F006
:10295600AFEF14F089EF14F03FBCB4EF14F0B6EF0C
:1029660014F0F6EF14F04150D8A4BCEF14F0BEEF0B
:1029760014F0C8EF14F0000E336E000E346E000E25
:10298600356E000E366E17EF16F037503326385078
:102996003422395035223A50362236A0D5EF14F07B
:1029A600D7EF14F083EF15F042A0DCEF14F0DEEF62
:1029B60014F0E4EF14F0D89042300109426EE6EFCD
:1029C60014F0D890423233A0EBEF14F0EDEF14F090
:1029D600EEEF14F0428E363436323532343233323C
:1029E600412A83EF15F03750335C3850345839504C
:1029F60035583650800A3B6E3A50800A3B58D8B05C
:102A060007EF15F009EF15F034EF15F03350375C8A
:102A16003B6E345038583C6E355039583D6E365002
:102A26003A583E6EFF0E3B24336EFF0E3C20346E4A
:102A3600FF0E3D20356EFF0E3E20366E800E3F1A8D
:102A4600426C4250D8A42AEF15F02CEF15F03CEF5B
:102A560015F0010E3326000E3422352236223CEFC5
:102A660015F03750335E3850345A3950355A3A508B
:102A7600365A3350341035103610D8A445EF15F0B9
:102A860047EF15F07CEF15F04250D8A44DEF15F046
:102A96004FEF15F07CEF15F0000E336E000E346E1E
:102AA600000E356E000E366E17EF16F0D8903336E0
:102AB60034363536363642AE63EF15F065EF15F02F
:102AC60066EF15F0338042A06BEF15F06DEF15F051
:102AD60071EF15F0D880423673EF15F0D890423674
:102AE6004150D8B479EF15F07BEF15F07CEF15F077
:102AF600410635AE81EF15F083EF15F059EF15F06D
:102B0600000E406E42AE8AEF15F08CEF15F0A4EF82
:102B160015F042C03BF07F0E3B16D8B495EF15F08A
:102B260097EF15F09BEF15F0010E406EA4EF15F030
:102B360033A0A0EF15F0A2EF15F0A4EF15F097EF74
:102B460015F04050D8B4AAEF15F0ACEF15F0D7EF5A
:102B560015F0010E3326000E34223522362236A019
:102B6600B7EF15F0B9EF15F0D7EF15F033C03BF01E
:102B760034C03CF035C03DF036C03EF03E343E3207
:102B86003D323C323B323BC033F03CC034F03DC0BA
:102B960035F03EC036F04128D8B4D4EF15F0D6EF64
:102BA60015F0D7EF15F0412A4128D8B4DDEF15F01E
:102BB600DFEF15F0E7EF15F04150D8A4E5EF15F07B
:102BC600E7EF15F0F9EF15F0000E336E000E346ED8
:102BD600000E356E000E366E4150D8A4F5EF15F096
:102BE600F7EF15F0F9EF15F0000E3F6E41A0FEEF7E
:102BF60015F000EF16F003EF16F0358E04EF16F021
:102C0600359ED8904130366E3FAE0CEF16F00EEF83
:102C160016F00FEF16F0368E33C033F034C034F0B2
:102C260035C035F036C036F012001D50800B266ECA
:102C36001D501D242C6E1CAE23EF16F025EF16F04A
:102C460026EF16F02C802C50D8B42CEF16F02EEF71
:102C560016F041EF16F02C28D8A434EF16F036EF14
:102C660016F03EEF16F0000E1A6E000E1B6E000EEA
:102C76001C6E000E1D6E1C8E49EF16F0000E1A6EAD
:102C8600000E1B6E000E1C6E000E1D6E2150800B7A
:102C9600261A215021242B6E20AE54EF16F056EF43
:102CA60016F057EF16F02B802B50D8B45DEF16F0C8
:102CB6005FEF16F072EF16F02B28D8A465EF16F02A
:102CC60067EF16F06FEF16F0000E1E6E000E1F6E09
:102CD600000E206E000E216E208E7AEF16F0000E8A
:102CE6001E6E000E1F6E000E206E000E216E2B5003
:102CF600D8B480EF16F082EF16F08AEF16F02C505B
:102D0600D8A488EF16F08AEF16F094EF16F0000EAE
:102D16001A6E000E1B6E000E1C6E000E1D6E3EEF30
:102D260018F020501A026F00CCFF31F06F00D0FF70
:102D360032F03150276E286A296A2A6A32502D6E7F
:102D46002E6A2F6A306A1F501B026F00CCFF31F0CB
:102D56006F00D0FF32F031502726000E282229229C
:102D66002A2232502D26000E2E222F2230221E50CD
:102D76001C026F00CCFF31F06F00D0FF32F03150F3
:102D86002726000E282229222A2232502D26000E1E
:102D96002E222F22302229C02AF028C029F027C04F
:102DA60028F0276A1E501B026F00CCFF31F06F001F
:102DB600D0FF32F03150272632502822000E292229
:102DC600000E2A221F501A026F00CCFF31F06F004E
:102DD600D0FF32F03150272632502822000E292209
:102DE600000E2A2229C02AF028C029F027C028F080
:102DF600276A1E501A026F00CCFF31F06F00D0FF19
:102E060032F03150272632502822000E2922000E99
:102E16002A2220501B026F00CCFF31F06F00D0FF3A
:102E260032F031502D2632502E22000E2F22000E67
:102E360030221F501C026F00CCFF31F06F00D0FF14
:102E460032F031502D2632502E22000E2F22000E47
:102E5600302220501C026F00CCFF31F06F00D0FFF3
:102E660032F03150226E3250236E246A256A24C015
:102E760025F023C024F022C023F0226A22502D26FA
:102E860023502E2224502F222550302227C022F0F4
:102E960028C023F029C024F02AC025F0190E59EFC6
:102EA60017F0D8902532243223322232E82E54EFFE
:102EB60017F022502D2623502E2224502F22255043
:102EC600302229C02AF028C029F027C028F0276A16
:102ED6002B502CC022F0236A2226000E2322820EBB
:102EE6002224316EFF0E2320326E8FEF17F0D8901A
:102EF6002D362E362F3630362AAE84EF17F086EF73
:102F060017F087EF17F02D80D89027362836293608
:102F16002A363106D8A032062FAE94EF17F096EF78
:102F260017F07AEF17F0000E2B6E2AAE9DEF17F012
:102F36009FEF17F0C3EF17F0FF0E2714226EFF0E58
:102F46002814236EFF0E2914246E7F0E2A14256E74
:102F56002250231024102510D8B4B4EF17F0B6EF82
:102F660017F0BAEF17F0010E2B6EC3EF17F02DA076
:102F7600BFEF17F0C1EF17F0C3EF17F0B6EF17F07A
:102F86002B50D8B4C9EF17F0CBEF17F0EFEF17F0CF
:102F9600010E2D26000E2E222F22302230A0D6EF33
:102FA60017F0D8EF17F0EFEF17F02DC022F02EC074
:102FB60023F02FC024F030C025F0253425322432EA
:102FC6002332223222C02DF023C02EF024C02FF04F
:102FD60025C030F0314A322A32BEFAEF17F03250AD
:102FE60008E13128D8A0FAEF17F0FCEF17F006EF4A
:102FF60018F0000E2D6E000E2E6E800E2F6E7F0EB8
:10300600306E34EF18F032BE13EF18F0325006E18E
:103016003104D8B011EF18F013EF18F01FEF18F0C5
:10302600000E2D6E000E2E6E000E2F6E000E306EF0
:10303600000E266E34EF18F031C02CF0FF0E2D1660
:10304600FF0E2E167F0E2F16000E30162CA02EEF1A
:1030560018F030EF18F031EF18F02F8ED8902C3092
:10306600306E265030122DC01AF02EC01BF02FC025
:103076001CF030C01DF012000450800B116E04507D
:103086000424186E03AE4AEF18F04CEF18F04DEF1B
:1030960018F018801850D8B453EF18F055EF18F000
:1030A6006AEF18F01828D8A45BEF18F05DEF18F057
:1030B60065EF18F0000E016E000E026E000E036E34
:1030C600000E046E038E000E046E72EF18F0000EF2
:1030D600016E000E026E000E036E000E046E0850A6
:1030E600800B111A08500824196E07AE7DEF18F0F0
:1030F6007FEF18F080EF18F019801950D8B486EFDA
:1031060018F088EF18F09DEF18F01928D8A48EEF64
:1031160018F090EF18F098EF18F0000E056E000EFC
:10312600066E000E076E000E086E078E000E086E05
:10313600A5EF18F0000E056E000E066E000E076E67
:10314600000E086E0550061007100810D8A4AEEF42
:1031560018F0B0EF18F0C8EF18F0000E016E000E70
:10316600026E000E036E000E046E800E03127F0EBA
:1031760004121150041201C001F002C002F003C093
:1031860003F004C004F00BEF1AF01850D8A4CEEFE9
:1031960018F0D0EF18F0DAEF18F0000E016E000EFE
:1031A600026E000E036E000E046E0BEF1AF019503D
:1031B60018C009F00A6A095E000E0A5A7F0E092431
:1031C600126E000E0A20136E01C00DF002C00EF042
:1031D60003C00FF004C010F0000E016E000E026E68
:1031E600000E036E000E046E000E146E000E156EB9
:1031F600000E166E000E176E000E196E3BEF19F0DC
:103206001950D8B409EF19F00BEF19F022EF19F0A5
:10321600D8900D360E360F361036D8900136023657
:103226000336043617AE1AEF19F01CEF19F01DEF2E
:1032360019F00180D8901436153616361736055013
:103246000D5C06500E5807500F5808501058D8A05D
:103256002FEF19F031EF19F03AEF19F0178C0550EE
:103266000D5E06500E5A07500F5A0850105A192A6A
:10327600190E196441EF19F043EF19F003EF19F035
:103286000D500E100F101010D8B44CEF19F04EEF71
:1032960019F066EF19F0148066EF19F0D890013630
:1032A60002360336043617AE5BEF19F05DEF19F000
:1032B6005EEF19F00180D89014361536163617369B
:1032C6001206D8A0130603AE6BEF19F06DEF19F0D6
:1032D60051EF19F0000E196E17AE74EF19F076EF74
:1032E60019F09AEF19F0FF0E1414096EFF0E15145B
:1032F6000A6EFF0E16140B6E7F0E17140C6E095015
:103306000A100B100C10D8B48BEF19F08DEF19F0D2
:1033160091EF19F0010E196E9AEF19F001A096EFD0
:1033260019F098EF19F09AEF19F08DEF19F019507E
:10333600D8B4A0EF19F0A2EF19F0C6EF19F0010EFC
:103346000126000E02220322042204A0ADEF19F08A
:10335600AFEF19F0C6EF19F001C009F002C00AF08C
:1033660003C00BF004C00CF00C340C320B320A32E2
:10337600093209C001F00AC002F00BC003F00CC00C
:1033860004F0124A132A13BED1EF19F0135008E1C4
:103396001228D8A0D1EF19F0D3EF19F0DEEF19F00B
:1033A600000E136E1268000E016E000E026E000E05
:1033B600036E000E046E13BEEBEF19F0135006E118
:1033C6001204D8B0E9EF19F0EBEF19F0F9EF19F0A4
:1033D600000E136E000E126E000E016E000E026ECF
:1033E600000E036E000E046E000E116E12C018F071
:1033F60018A000EF1AF002EF1AF005EF1AF0038E8C
:1034060006EF1AF0039ED8901830046EBCEF18F041
:103416001200096E0950D8B413EF1AF015EF1AF01E
:1034260037EF1AF004BE1CEF1AF01AEF1AF037EF56
:103436001AF001C005F002C006F003C007F004C090
:1034460008F0051E061E071E081E052A000E062287
:103456000722082205C00BF006C00CF007C00DF0CD
:1034660008C00EF03FEF1AF001C00BF002C00CF0DE
:1034760003C00DF004C00EF001500210031004103A
:10348600D8A448EF1AF04AEF1AF054EF1AF0000EDB
:10349600016E000E026E000E036E000E046EE5EF66
:1034A6001AF0960E0A6E5EEF1AF00A2AD8900E32BD
:1034B6000D320C320B32000E0B14056E000E0C147E
:1034C600066E000E0D14076EFE0E0E14086E0550E5
:1034D600061007100810D8A473EF1AF075EF1AF04B
:1034E60058EF1AF083EF1AF00A2A010E0B26000E87
:1034F6000C220D220E22D8900E320D320C320B32D7
:10350600000E0B14056E000E0C14066E000E0D1444
:10351600076EFF0E0E14086E0550061007100810F1
:10352600D8A498EF1AF09AEF1AF077EF1AF0A2EFF4
:103536001AF00A06D8900B360C360D360E360DBE2E
:10354600A7EF1AF0A9EF1AF0B1EF1AF0020E0A600F
:10355600AFEF1AF0B1EF1AF09CEF1AF00AB0B6EF1F
:103566001AF0B8EF1AF0B9EF1AF00D9ED8900A3299
:103576000AC005F0066A076A086A05C008F0076A05
:10358600066A056A05500B1206500C1207500D12FA
:1035960008500E120950D8B4D3EF1AF0D5EF1AF02E
:1035A600DDEF1AF004BEDCEF1AF0DAEF1AF0DDEF09
:1035B6001AF00E8E0BC001F00CC002F00DC003F025
:1035C6000EC004F012004DC01EF04EC01FF04FC0DA
:1035D60020F050C021F051C005F052C006F053C093
:1035E60007F054C008F0000E016E000E026E800E49
:1035F600036E3F0E046E3FEC18F001C01AF002C0D5
:103606001BF003C01CF004C01DF018EC16F01AC025
:1036160060F01BC061F01CC062F01DC063F0000EBC
:10362600376E000E386E000E396EBF0E3A6E000E03
:10363600056E000E066E800E076E400E086E60C0A8
:1036460001F061C002F062C003F063C004F03FEC19
:1036560018F001C033F002C034F003C035F004C0E6
:1036660036F0B8EC13F033C043F034C044F035C044
:1036760045F036C046F066EC1CF043C066F044C028
:1036860067F0000E376E000E386E000E396E3F0E74
:103696003A6E66C055F067C056F0D8905536563625
:1036A600020E5526000E562255C001F056C002F0F5
:1036B600036A046A000E0CEC1AF001C033F002C073
:1036C60034F003C035F004C036F0B8EC13F033C064
:1036D60043F034C044F035C045F036C046F066ECE1
:1036E6001CF043C068F044C069F0030E0001681581
:1036F600646F656BC484000E6E6E60009BF1ABFF59
:1037060064C055F0553A554655466C5055183F0B12
:1037160055186C6E68C055F069C056F0D890563290
:103726005532D8905632553255506D6E3901A495A2
:10373600AE808F0EAC16AC8EA4A5A4EF1BF0A6EF40
:103746001BF09FEF1BF0120083EC1DF03901D851DE
:10375600F80B0309D86FD88DCAA0B4EF1BF0B6EFEB
:103766001BF0AFEF1BF0CAB0BBEF1BF0BDEF1BF0B9
:10377600B6EF1BF03901D89D000E4D6E300E4E6E21
:10378600F20E4F6E460E506E000E516E800E526E49
:10379600090E536E440E546EE6EC1AF0000E036EDC
:1037A6003C0E026E13EC1DF0010E5C6E010E5B6E9C
:1037B600010E5A6ECA82010E066E200E076E000EAC
:1037C600096E090E086EE9EC1CF09EEC1DF098ECF3
:1037D6001DF0A4EC1DF05AEF1CF05B50D8B4F6EFC8
:1037E6001BF0F8EF1BF025EF1CF0B2905A50D8B43E
:1037F600FFEF1BF001EF1CF004EF1CF0CA821EEF76
:103806001CF0000E036E3C0E026E13EC1DF00B0E48
:10381600066E200E076E000E096E060E086EE9ECA7
:103826001CF0060E576E070EE82EFED7572EFCD755
:10383600CA929EEC1DF0000E5B6E1C0EB16EF20E6F
:10384600B06EB280CAA02AEF1CF02CEF1CF05AEF23
:103856001CF0CAB031EF1CF033EF1CF02CEF1CF05B
:10386600060E576E070EE82EFED7572EFCD7000E13
:10387600036E3C0E026E13EC1DF0110E066E200E4A
:10388600076E000E096E020E086EE9EC1CF00B0EB8
:10389600066E200E076E000E096E060E086EE9EC27
:1038A6001CF09EEC1DF0AAEC1DF0000E5C6E5C5048
:1038B600D8A460EF1CF062EF1CF0F0EF1BF0A9EF4C
:1038C6001BF057EF00F0453446344C6E4C50D8A4EC
:1038D6006FEF1CF071EF1CF07BEF1CF0000E436ED7
:1038E600000E446E000E456E000E466EE8EF1CF0AC
:1038F60043C047F044C048F045C049F046C04AF0CE
:10390600200E8BEF1CF0D8904A32493248324732AB
:10391600E82E86EF1CF047504B6E458EFF0E431681
:10392600FF0E4416FF0E4516000E4616960E4C5E0A
:103936004CBEA2EF1CF0A0EF1CF0B8EF1CF04C50F0
:10394600800A970FD8B0AAEF1CF0ACEF1CF0AEEFD0
:103956001CF071EF1CF0D8904632453244324332A7
:103966004C3EAEEF1CF0D0EF1CF01F0E4C64BEEFC9
:103976001CF0C0EF1CF0C8EF1CF071EF1CF0D890E3
:1039860043364436453646364C064C50D8A4CEEF20
:103996001CF0D0EF1CF0C2EF1CF04B50D8B4D6EFA1
:1039A6001CF0D8EF1CF0E0EF1CF0461E451E441E2E
:1039B600436C000E44224522462243C043F044C0D5
:1039C60044F045C045F046C046F01200000E0D6EAC
:1039D600000E0C6E03EF1DF00C5006240A6E0D50FF
:1039E60007200B6E60002BF0F6FF60002FF0F7FF4C
:1039F600000EF86E0800F5500BEC10F00C4A0D2A7C
:103A060008500C5C09500D58D8A00CEF1DF00EEFB5
:103A16001DF0EFEF1CF036EC1DF036EC1DF0120039
:103A26003C01FB99FB91FE51E00B0809FE6FFC512E
:103A3600E00B0109FC6F280E3A01146F3C01FA8F66
:103A4600A280A0508F0B6009A06E070E9F6EA1503A
:103A5600E00B0809A16E010E6CEC1DF002C058F0D7
:103A660003C059F01200000E026E000E016E7AECD1
:103A76001DF0014A022A02BE4AEF1DF0025009E17A
:103A8600030E015CD8A04AEF1DF04CEF1DF03AEF93
:043A96001DF012000D
:103A9C003901A491010E5B6E5A50D8B458EF1DF049
:103AAC005BEF1DF0010E5CEF1DF0000E5A6E110065
:103ABC005C6A5B6A5A6A596A586A080ED56E000EBF
:103ACC00D66E000ED76E0001A7EF1BF0016E0150F1
:103ADC00D8B473EF1DF075EF1DF078EF1DF06E8EFE
:103AEC0079EF1DF06E9E1200A08EA0BE80EF1DF02F
:103AFC0082EF1DF07BEF1DF01200000E3A01406FBB
:103B0C00C280C292C49812003C01FA817AEC1DF07A
:103B1C003C01FA9112003C01FA8136EC1DF03C019B
:103B2C00FA911200D29AD28E39019481A49112008A
:103B3C003C01FA9F000E6CEC1DF01200300EB2121C
:103B4C00010EB56EB39E1200000E6E6EAC9E12008E
:020000040020DA
:10000000FF0FFF0FFF0FFF0FFF0FFF0FFF0FFF0F80
:020000040030CA
:0A000000DCFFFFFF9FFFFFDFFFFFA3
:00000001FF
