:020000040000FA
:0400000057EF00F0C6
:10000800A40EA40EA40EA40EA40EA40EA40EA40E58
:10001800A40EA40EA40EA40EA40EA40EA40EA40E48
:10002800A40EA40EA40EA40EA40EA40EA40EA40E38
:10003800A40EA40EA40EA40EA40EA40EA40EA40E28
:10004800BE0EA40EA40EA40E2B00A40EA40EA40E85
:10005800A40EA40EA40EA40EA40EA40EA40EA40E08
:10006800A40EA40EA40EA40EA40EA40EA40EA40EF8
:10007800A40EA40E2B00A40EA40EA40E2B002B007D
:100088002B002B002B002B002B002B00A40EA40E02
:10009800A40EA40EA40EA40E2B002B002B002B00E4
:0A00A800A40EA40EFF008DEF1DF062
:1020000000476F6F64206C75636B004E304D435713
:10201000004F4B200000066E6EEF12F0BBEC1DF07F
:10202000AAEC1DF0C2EC1DF064EC1DF0B7EF13F04C
:10203000C2EC1DF0AAEC1DF0BBEC1DF0AAEC1DF0EB
:10204000BBEC1DF0AAEC1DF0BBEC1DF064EC1DF028
:10205000B7EF13F0C2EC1DF0AAEC1DF0BBEC1DF0C5
:10206000AAEC1DF0C2EC1DF0AAEC1DF0BBEC1DF0BB
:1020700014EF10F0C2EC1DF01EEF10F0BBEC1DF0E1
:1020800014EF10F0BBEC1DF0AAEC1DF0BBEC1DF042
:10209000AAEC1DF0C2EC1DF0AAEC1DF03EEF10F012
:1020A000C2EC1DF030EF10F0BBEC1DF0AAEC1DF0FF
:1020B000BBEC1DF0AAEC1DF0BBEC1DF0AAEC1DF072
:1020C000BBEC1DF014EF10F0BBEC1DF0AAEC1DF002
:1020D000BBEC1DF014EF10F0BBEC1DF0AAEC1DF0F2
:1020E000C2EC1DF0AAEC1DF0C2EC1DF0AAEC1DF034
:1020F00012EF10F0C2EC1DF0AAEC1DF0BBEC1DF0CD
:1021000076EF10F0BBEC1DF0AAEC1DF0C2EC1DF058
:10211000AAEC1DF0BBEC1DF04CEF10F0C2EC1DF072
:1021200076EF10F0C2EC1DF022EF10F0C2EC1DF0C3
:10213000AAEC1DF0C2EC1DF0AAEC1DF012EF10F09D
:10214000BBEC1DF0AAEC1DF0C2EC1DF0AAEC1DF0DA
:10215000C2EC1DF022EF10F0BBEC1DF0AAEC1DF05C
:102160004AEF10F0BBEC1DF0AAEC1DF0BBEC1DF02B
:10217000AAEC1DF0BBEC1DF014EF10F0C2EC1DF04A
:1021800064EC1DF0B7EF13F0BBEC1DF0AAEC1DF0F2
:10219000BBEC1DF0AAEC1DF012EF10F0BBEC1DF033
:1021A000AAEC1DF0BBEC1DF0AAEC1DF0BBEC1DF081
:1021B000AAEC1DF012EF10F0BBEC1DF0AAEC1DF024
:1021C000C2EC1DF0AAEC1DF0C2EC1DF064EC1DF099
:1021D000B7EF13F0C2EC1DF0AAEC1DF0BBEC1DF044
:1021E0007CEF10F0C2EC1DF0AAEC1DF0BBEC1DF072
:1021F00098EF10F0C2EC1DF0AAEC1DF0C2EC1DF03F
:10220000AAEC1DF0BBEC1DF0AAEC1DF0BBEC1DF020
:1022100014EF10F0BBEC1DF0AAEC1DF0C2EC1DF0A9
:10222000AAEC1DF0C2EC1DF098EF10F0BBEC1DF015
:10223000AAEC1DF0BBEC1DF0AAEC1DF070EF10F045
:10224000BBEC1DF0AAEC1DF0BBEC1DF0AAEC1DF0E0
:10225000BBEC1DF0AAEC1DF0E0EF10F0BBEC1DF0A4
:10226000AAEC1DF0BBEC1DF0AAEC1DF0BBEC1DF0C0
:10227000AAEC1DF0BBEC1DF0AAEC1DF012EF10F063
:10228000BBEC1DF0AAEC1DF0BBEC1DF0AAEC1DF0A0
:10229000BBEC1DF0AAEC1DF0BBEC1DF0AAEC1DF090
:1022A000BBEC1DF014EF10F0C2EC1DF0AAEC1DF019
:1022B000BBEC1DF01AEF10F0C2EC1DF0AAEC1DF003
:1022C000C2EC1DF0AAEC1DF0BBEC1DF0AAEC1DF059
:1022D000BBEC1DF0AAEC1DF0BBEC1DF014EF10F0F0
:1022E000C2EC1DF0AAEC1DF0C2EC1DF0AAEC1DF032
:1022F00086EF10F0C2EC1DF0AAEC1DF0C2EC1DF050
:10230000AAEC1DF0A4EF10F0C2EC1DF0AAEC1DF039
:10231000C2EC1DF0AAEC1DF070EF10F0BBEC1DF04C
:10232000AAEC1DF0C2EC1DF0AAEC1DF0BBEC1DF0F8
:10233000AAEC1DF0C2EC1DF07CEF10F0C2EC1DF019
:10234000AAEC1DF0C2EC1DF0AAEC1DF0BBEC1DF0D8
:10235000AAEC1DF0BBEC1DF0AAEC1DF0E0EF10F0B4
:10236000BBEC1DF0AAEC1DF0BBEC1DF0AAEC1DF0BF
:10237000C2EC1DF0AAEC1DF0C2EC1DF01EEF10F037
:10238000C2EC1DF0AAEC1DF0C2EC1DF0AAEC1DF091
:10239000C2EC1DF0AAEC1DF0BBEC1DF088EF10F0B4
:1023A000C2EC1DF0AAEC1DF0BBEC1DF02CEF10F000
:1023B000C2EC1DF0AAEC1DF0BBEC1DF0AAEC1DF068
:1023C000BBEC1DF0ECEF10F0C2EC1DF0DEEF11F0F5
:1023D000BBEC1DF0AAEC1DF0C2EC1DF0AAEC1DF048
:1023E000C2EC1DF0AAEC1DF0C2EC1DF0AAEC1DF031
:1023F0004AEF10F0C2EC1DF0AAEC1DF0BBEC1DF092
:10240000AAEC1DF0C2EC1DF0AAEC1DF0C2EC1DF010
:10241000AAEC1DF0BBEC1DF0E2EF10F0BBEC1DF0E0
:10242000AAEC1DF0BBEC1DF0AAEC1DF0C2EC1DF0F7
:1024300098EF11F0C2EC1DF0AAEC1DF0BBEC1DF002
:10244000AAEC1DF0C2EC1DF0AAEC1DF0BBEC1DF0D7
:10245000AAEC1DF0E0EF10F0BBEC1DF0AAEC1DF0B3
:10246000C8EF11F0BBEC1DF0AAEC1DF0C2EC1DF0A2
:10247000AAEC1DF0BBEC1DF0AAEC1DF0BBEC1DF0AE
:10248000A6EF10F0C2EC1DF0AAEC1DF0BBEC1DF0A5
:10249000AAEC1DF0C2EC1DF0AAEC1DF0BBEC1DF087
:1024A000AAEC1DF04AEF10F0BBEC1DF0AAEC1DF0F9
:1024B000BBEC1DF0AAEC1DF0BBEC1DF0AAEC1DF06E
:1024C000C2EC1DF0AAEC1DF0BBEC1DF008EF12F001
:1024D00064EC1DF064EC1DF0B7EF13F00650046ED1
:1024E000056A0550000AD8B478EF12F068EF12F0D0
:1024F0000450200AD8B468EF12F0010AD8B41AEFD9
:1025000012F0030AD8B432EF12F0060AD8B454EF2E
:1025100012F0020AD8B42CEF12F0010AD8B4E8EF96
:1025200011F00F0AD8B4FAEF11F0010AD8B4FAEF9B
:1025300011F0050AD8B49EEF11F0010AD8B4D8EF13
:1025400011F0030AD8B48EEF11F0010AD8B4D0EF1D
:1025500011F01F0AD8B484EF11F0010AD8B40AEFC1
:1025600011F0030AD8B416EF11F0010AD8B420EF25
:1025700011F0070AD8B42EEF11F0010AD8B440EFD9
:1025800011F0030AD8B454EF11F0010AD8B45CEF8B
:1025900011F00F0AD8B470EF11F0010AD8B47AEF35
:1025A00011F0030AD8B4C0EF11F0010AD8B442EF19
:1025B00012F0060AD8B4E4EF11F0020AD8B4B0EF72
:1025C00011F07E0AD8B40EEF10F0030AD8B418EF59
:1025D00010F0010AD8B42AEF10F0070AD8B43AEF85
:1025E00010F0010AD8B43EEF10F0030AD8B442EF5D
:1025F00010F0010AD8B450EF10F00F0AD8B454EF1D
:1026000010F0010AD8B464EF10F0030AD8B46CEFEC
:1026100010F0010AD8B47AEF10F0070AD8B482EFAC
:1026200010F0010AD8B48EEF10F0030AD8B492EF7C
:1026300010F0010AD8B496EF10F01F0AD8B4A0EF3A
:1026400010F0010AD8B496EF10F0030AD8B4ACEF3A
:1026500010F0010AD8B4B2EF10F0070AD8B4BEEFF8
:1026600010F0010AD8B4C4EF10F0030AD8B4CEEFCA
:1026700010F0010AD8B4DCEF10F00F0AD8B4EAEF7A
:1026800010F0010AD8B4F2EF10F0030AD8B4FAEF50
:1026900010F0050AD8B40EEF12F03E0AD8B40EEFCF
:1026A00010F0030AD8B418EF10F0010AD8B42AEFDA
:1026B00010F0070AD8B43AEF10F0010AD8B43EEF90
:1026C00010F0030AD8B442EF10F0010AD8B450EF6A
:1026D00010F00F0AD8B454EF10F0010AD8B464EF28
:1026E00010F0030AD8B46CEF10F0010AD8B47AEFF6
:1026F00010F0070AD8B482EF10F0010AD8B48EEFB8
:1027000010F0030AD8B492EF10F0010AD8B496EF93
:1027100010F01F0AD8B4A0EF10F0010AD8B496EF59
:1027200010F0030AD8B4ACEF10F0010AD8B4B2EF3D
:1027300010F0070AD8B4BEEF10F0010AD8B4C4EF05
:1027400010F0030AD8B4CEEF10F0010AD8B4DCEFD1
:1027500010F00F0AD8B4EAEF10F0010AD8B4F2EF83
:1027600010F0030AD8B4FAEF10F068EF12F012007C
:102770003750800B406E37503724426E36AEC3EF71
:1027800013F0C5EF13F0C6EF13F042804250D8B4F7
:10279000CCEF13F0CEEF13F0E3EF13F04228D8A400
:1027A000D4EF13F0D6EF13F0DEEF13F0000E346E1B
:1027B000000E356E000E366E000E376E368E000E31
:1027C000376EEBEF13F0000E346E000E356E000E18
:1027D000366E000E376E3B50800B416E40504118F4
:1027E000D8B4F5EF13F0F7EF13F0F8EF13F0408CD7
:1027F0003B503B24416E3AAE00EF14F002EF14F070
:1028000003EF14F041804150D8B409EF14F00BEFFE
:1028100014F020EF14F04128D8A411EF14F013EFB6
:1028200014F01BEF14F0000E386E000E396E000E1F
:102830003A6E000E3B6E3A8E000E3B6E28EF14F09F
:10284000000E386E000E396E000E3A6E000E3B6EB2
:102850004250415CD8B02FEF14F031EF14F058EF34
:1028600014F040AC36EF14F038EF14F03AEF14F0F7
:10287000800E401A42C043F041C042F043C041F0D4
:1028800034C043F038C034F043C038F035C043F0B2
:1028900039C035F043C039F036C043F03AC036F0A5
:1028A00043C03AF037C043F03BC037F043C03BF081
:1028B000000E436E425041C03CF03D6A3C5E000E4B
:1028C0003D5A3DBE6DEF14F03D5009E11A0E3C5CDF
:1028D000D8A06DEF14F06FEF14F0A6EF14F03450A1
:1028E000351036103710D8A478EF14F07BEF14F0C1
:1028F000010E7CEF14F0000E436E000E346E000EDD
:10290000356E000E366E000E376E41C042F0AFEFEE
:1029100014F043A08EEF14F090EF14F096EF14F043
:10292000D89043300109436E98EF14F0D8904332A9
:1029300034A09DEF14F09FEF14F0A0EF14F0438E3D
:1029400037343732363235323432422A4150425CE3
:10295000D8A0ADEF14F0AFEF14F089EF14F040BC45
:10296000B4EF14F0B6EF14F0F6EF14F04250D8A420
:10297000BCEF14F0BEEF14F0C8EF14F0000E346E8C
:10298000000E356E000E366E000E376E17EF16F025
:1029900038503426395035223A5036223B503722AF
:1029A00037A0D5EF14F0D7EF14F083EF15F043A064
:1029B000DCEF14F0DEEF14F0E4EF14F0D8904330C5
:1029C0000109436EE6EF14F0D890433234A0EBEFE8
:1029D00014F0EDEF14F0EEEF14F0438E373437328D
:1029E000363235323432422A83EF15F03850345CB7
:1029F000395035583A5036583750800A3C6E3B5063
:102A0000800A3C58D8B007EF15F009EF15F034EF05
:102A100015F03450385C3C6E355039583D6E3650A8
:102A20003A583E6E37503B583F6EFF0E3C24346E92
:102A3000FF0E3D20356EFF0E3E20366EFF0E3F200E
:102A4000376E800E401A436C4350D8A42AEF15F01D
:102A50002CEF15F03CEF15F0010E3426000E352258
:102A6000362237223CEF15F03850345E3950355A53
:102A70003A50365A3B50375A3450351036103710CA
:102A8000D8A445EF15F047EF15F07CEF15F0435053
:102A9000D8A44DEF15F04FEF15F07CEF15F0000EB8
:102AA000346E000E356E000E366E000E376E17EF68
:102AB00016F0D890343635363636373643AE63EFB7
:102AC00015F065EF15F066EF15F0348043A06BEF5D
:102AD00015F06DEF15F071EF15F0D880433673EFF8
:102AE00015F0D89043364250D8B479EF15F07BEF0B
:102AF00015F07CEF15F0420636AE81EF15F083EF4E
:102B000015F059EF15F0000E416E43AE8AEF15F047
:102B10008CEF15F0A4EF15F043C03CF07F0E3C168F
:102B2000D8B495EF15F097EF15F09BEF15F0010E67
:102B3000416EA4EF15F034A0A0EF15F0A2EF15F050
:102B4000A4EF15F097EF15F04150D8B4AAEF15F0A7
:102B5000ACEF15F0D7EF15F0010E3426000E35223C
:102B60003622372237A0B7EF15F0B9EF15F0D7EFBF
:102B700015F034C03CF035C03DF036C03EF037C0F3
:102B80003FF03F343F323E323D323C323CC034F0C5
:102B90003DC035F03EC036F03FC037F04228D8B4D3
:102BA000D4EF15F0D6EF15F0D7EF15F0422A4228F2
:102BB000D8B4DDEF15F0DFEF15F0E7EF15F0425078
:102BC000D8A4E5EF15F0E7EF15F0F9EF15F0000EDA
:102BD000346E000E356E000E366E000E376E4250AB
:102BE000D8A4F5EF15F0F7EF15F0F9EF15F0000E9A
:102BF000406E42A0FEEF15F000EF16F003EF16F066
:102C0000368E04EF16F0369ED8904230376E40AEC6
:102C10000CEF16F00EEF16F00FEF16F0378E34C0F3
:102C200034F035C035F036C036F037C037F012001A
:102C30001E50800B276E1E501E242D6E1DAE23EFDE
:102C400016F025EF16F026EF16F02D802D50D8B493
:102C50002CEF16F02EEF16F041EF16F02D28D8A429
:102C600034EF16F036EF16F03EEF16F0000E1B6E46
:102C7000000E1C6E000E1D6E000E1E6E1D8E49EFA6
:102C800016F0000E1B6E000E1C6E000E1D6E000E68
:102C90001E6E2250800B271A22502224286E21AE4D
:102CA00054EF16F056EF16F057EF16F02880285024
:102CB000D8B45DEF16F05FEF16F072EF16F028282B
:102CC000D8A465EF16F067EF16F06FEF16F0000E60
:102CD0001F6E000E206E000E216E000E226E218EE1
:102CE0007AEF16F0000E1F6E000E206E000E216EA1
:102CF000000E226E2850D8B480EF16F082EF16F046
:102D00008AEF16F02D50D8A488EF16F08AEF16F04F
:102D100094EF16F0000E1B6E000E1C6E000E1D6E62
:102D2000000E1E6E3EEF18F021501B026F00CCFF0C
:102D300032F06F00D0FF33F03250296E2A6A2B6ACE
:102D40002C6A33502E6E2F6A306A316A20501C0272
:102D50006F00CCFF32F06F00D0FF33F032502926E5
:102D6000000E2A222B222C2233502E26000E2F2238
:102D7000302231221F501D026F00CCFF32F06F0055
:102D8000D0FF33F032502926000E2A222B222C228B
:102D900033502E26000E2F22302231222BC02CF051
:102DA0002AC02BF029C02AF0296A1F501C026F008C
:102DB000CCFF32F06F00D0FF33F032502926335071
:102DC0002A22000E2B22000E2C2220501B026F0004
:102DD000CCFF32F06F00D0FF33F032502926335051
:102DE0002A22000E2B22000E2C222BC02CF02AC0EF
:102DF0002BF029C02AF0296A1F501B026F00CCFF5C
:102E000032F06F00D0FF33F03250292633502A229F
:102E1000000E2B22000E2C2221501C026F00CCFF32
:102E200032F06F00D0FF33F032502E2633502F2275
:102E3000000E3022000E312220501D026F00CCFF08
:102E400032F06F00D0FF33F032502E2633502F2255
:102E5000000E3022000E312221501D026F00CCFFE7
:102E600032F06F00D0FF33F03250236E3350246EB7
:102E7000256A266A25C026F024C025F023C024F048
:102E8000236A23502E2624502F22255030222650EC
:102E9000312229C023F02AC024F02BC025F02CC0F9
:102EA00026F0190E59EF17F0D89026322532243229
:102EB0002332E82E54EF17F023502E2624502F22D1
:102EC00025503022265031222BC02CF02AC02BF066
:102ED00029C02AF0296A28502DC023F0246A23260D
:102EE000000E2422820E2324326EFF0E2420336E25
:102EF0008FEF17F0D8902E362F36303631362CAE75
:102F000084EF17F086EF17F087EF17F02E80D89038
:102F100029362A362B362C363206D8A0330630AE68
:102F200094EF17F096EF17F07AEF17F0000E286E77
:102F30002CAE9DEF17F09FEF17F0C3EF17F0FF0EC9
:102F40002914236EFF0E2A14246EFF0E2B14256EF7
:102F50007F0E2C14266E2350241025102610D8B472
:102F6000B4EF17F0B6EF17F0BAEF17F0010E286EB6
:102F7000C3EF17F02EA0BFEF17F0C1EF17F0C3EFAC
:102F800017F0B6EF17F02850D8B4C9EF17F0CBEF11
:102F900017F0EFEF17F0010E2E26000E2F22302231
:102FA000312231A0D6EF17F0D8EF17F0EFEF17F07E
:102FB0002EC023F02FC024F030C025F031C026F001
:102FC0002634263225322432233223C02EF024C068
:102FD0002FF025C030F026C031F0324A332A33BEFC
:102FE000FAEF17F0335008E13228D8A0FAEF17F0C3
:102FF000FCEF17F006EF18F0000E2E6E000E2F6E8D
:10300000800E306E7F0E316E34EF18F033BE13EF4A
:1030100018F0335006E13204D8B011EF18F013EF76
:1030200018F01FEF18F0000E2E6E000E2F6E000E1F
:10303000306E000E316E000E276E34EF18F032C085
:103040002DF0FF0E2E16FF0E2F167F0E3016000EDF
:1030500031162DA02EEF18F030EF18F031EF18F0E8
:10306000308ED8902D30316E275031122EC01BF08B
:103070002FC01CF030C01DF031C01EF012000550F2
:10308000800B126E05500524196E04AE4AEF18F03D
:103090004CEF18F04DEF18F019801950D8B453EFD9
:1030A00018F055EF18F06AEF18F01928D8A45BEF64
:1030B00018F05DEF18F065EF18F0000E026E000ECC
:1030C000036E000E046E000E056E048E000E056E7B
:1030D00072EF18F0000E026E000E036E000E046E0A
:1030E000000E056E0950800B121A095009241A6E41
:1030F00008AE7DEF18F07FEF18F080EF18F01A801F
:103100001A50D8B486EF18F088EF18F09DEF18F039
:103110001A28D8A48EEF18F090EF18F098EF18F056
:10312000000E066E000E076E000E086E000E096E91
:10313000088E000E096EA5EF18F0000E066E000E48
:10314000076E000E086E000E096E0650071008107C
:103150000910D8A4AEEF18F0B0EF18F0C8EF18F0CF
:10316000000E026E000E036E000E046E000E056E61
:10317000800E04127F0E05121250051202C002F0DA
:1031800003C003F004C004F005C005F00BEF1AF013
:103190001950D8A4CEEF18F0D0EF18F0DAEF18F0ED
:1031A000000E026E000E036E000E046E000E056E21
:1031B0000BEF1AF01A5019C00AF00B6A0A5E000EE3
:1031C0000B5A7F0E0A24136E000E0B20146E02C0E1
:1031D0000EF003C00FF004C010F005C011F0000E97
:1031E000026E000E036E000E046E000E056E000EE1
:1031F000156E000E166E000E176E000E186E000E85
:103200001A6E3BEF19F01A50D8B409EF19F00BEF12
:1032100019F022EF19F0D8900E360F36103611360D
:10322000D890023603360436053618AE1AEF19F078
:103230001CEF19F01DEF19F00280D89015361636E4
:103240001736183606500E5C07500F5808501058A5
:1032500009501158D8A02FEF19F031EF19F03AEFBB
:1032600019F0188C06500E5E07500F5A0850105A6D
:103270000950115A1A2A190E1A6441EF19F043EF36
:1032800019F003EF19F00E500F1010101110D8B4F0
:103290004CEF19F04EEF19F066EF19F0158066EF5C
:1032A00019F0D890023603360436053618AE5BEFB7
:1032B00019F05DEF19F05EEF19F00280D890153625
:1032C0001636173618361306D8A0140604AE6BEF60
:1032D00019F06DEF19F051EF19F0000E1A6E18AEDB
:1032E00074EF19F076EF19F09AEF19F0FF0E15143C
:1032F0000A6EFF0E16140B6EFF0E17140C6E7F0E67
:1033000018140D6E0A500B100C100D10D8B48BEF62
:1033100019F08DEF19F091EF19F0010E1A6E9AEF76
:1033200019F002A096EF19F098EF19F09AEF19F042
:103330008DEF19F01A50D8B4A0EF19F0A2EF19F0E0
:10334000C6EF19F0010E0226000E03220422052208
:1033500005A0ADEF19F0AFEF19F0C6EF19F002C0FC
:103360000AF003C00BF004C00CF005C00DF00D34E2
:103370000D320C320B320A320AC002F00BC003F0DD
:103380000CC004F00DC005F0134A142A14BED1EF8E
:1033900019F0145008E11328D8A0D1EF19F0D3EF99
:1033A00019F0DEEF19F0000E146E1368000E026EB5
:1033B000000E036E000E046E000E056E14BEEBEFE1
:1033C00019F0145006E11304D8B0E9EF19F0EBEF4F
:1033D00019F0F9EF19F0000E146E000E136E000EC6
:1033E000026E000E036E000E046E000E056E000EDF
:1033F000126E13C019F019A000EF1AF002EF1AF0C4
:1034000005EF1AF0048E06EF1AF0049ED8901930DA
:10341000056EBCEF18F012000A6E0A50D8B413EF14
:103420001AF015EF1AF037EF1AF005BE1CEF1AF07C
:103430001AEF1AF037EF1AF002C006F003C007F0D7
:1034400004C008F005C009F0061E071E081E091E6C
:10345000062A000E07220822092206C00CF007C027
:103460000DF008C00EF009C00FF03FEF1AF002C0D7
:103470000CF003C00DF004C00EF005C00FF00250B8
:10348000031004100510D8A448EF1AF04AEF1AF000
:1034900054EF1AF0000E026E000E036E000E046E62
:1034A000000E056EE5EF1AF0960E0B6E5EEF1AF049
:1034B0000B2AD8900F320E320D320C32000E0C1443
:1034C000066E000E0D14076E000E0E14086EFE0E32
:1034D0000F14096E0650071008100910D8A473EFD6
:1034E0001AF075EF1AF058EF1AF083EF1AF00B2A62
:1034F000010E0C26000E0D220E220F22D8900F3244
:103500000E320D320C32000E0C14066E000E0D142D
:10351000076E000E0E14086EFF0E0F14096E065093
:10352000071008100910D8A498EF1AF09AEF1AF0B3
:1035300077EF1AF0A2EF1AF00B06D8900C360D3682
:103540000E360F360EBEA7EF1AF0A9EF1AF0B1EF44
:103550001AF0020E0B60AFEF1AF0B1EF1AF09CEF09
:103560001AF00BB0B6EF1AF0B8EF1AF0B9EF1AF084
:103570000E9ED8900B320BC006F0076A086A096AE3
:1035800006C009F0086A076A066A06500C1207505E
:103590000D1208500E1209500F120A50D8B4D3EF72
:1035A0001AF0D5EF1AF0DDEF1AF005BEDCEF1AF0D5
:1035B000DAEF1AF0DDEF1AF00F8E0CC002F00DC03A
:1035C00003F00EC004F00FC005F012004EC01FF053
:1035D0004FC020F050C021F051C022F052C006F080
:1035E00053C007F054C008F055C009F0000E026E39
:1035F000000E036E800E046E3F0E056E3FEC18F059
:1036000002C01BF003C01CF004C01DF005C01EF07A
:1036100018EC16F01BC060F01CC061F01DC062F019
:103620001EC063F0000E386E000E396E000E3A6E4A
:10363000BF0E3B6E000E066E000E076E800E086E0B
:10364000400E096E60C002F061C003F062C004F079
:1036500063C005F03FEC18F002C034F003C035F051
:1036600004C036F005C037F0B8EC13F034C044F0B5
:1036700035C045F036C046F037C047F09DEC1BF032
:1036800044500001656F000E386E000E396E000E5A
:103690003A6E3F0E3B6E6551566E576AD89056365D
:1036A0005736020E5626000E572256C002F057C05B
:1036B00003F0000E03BEFF0E046E056E010E0CEC4F
:1036C0001AF002C034F003C035F004C036F005C073
:1036D00037F0B8EC13F034C044F035C045F036C0D4
:1036E00046F037C047F09DEC1BF044500001666F78
:1036F0006651030B646FC484000E6E6E600097F118
:10370000ABFF64C056F0563A564656466C505618B3
:103710003F0B56186C6E6641E8423F0B6D6E3901E7
:10372000A495AE808F0EAC16AC8EA4A59AEF1BF0BC
:103730009CEF1BF095EF1BF01200463447344D6EA2
:103740004D50D8A4A6EF1BF0A8EF1BF0B2EF1BF072
:10375000000E446E000E456E000E466E000E476E63
:103760001FEF1CF044C048F045C049F046C04AF085
:1037700047C04BF0200EC2EF1BF0D8904B324A32BC
:1037800049324832E82EBDEF1BF048504C6E468E51
:10379000FF0E4416FF0E4516FF0E4616000E471686
:1037A000960E4D5E4DBED9EF1BF0D7EF1BF0EFEF3D
:1037B0001BF04D50800A970FD8B0E1EF1BF0E3EFFC
:1037C0001BF0E5EF1BF0A8EF1BF0D8904732463214
:1037D000453244324D3EE5EF1BF007EF1CF01F0E63
:1037E0004D64F5EF1BF0F7EF1BF0FFEF1BF0A8EFB8
:1037F0001BF0D89044364536463647364D064D5078
:10380000D8A405EF1CF007EF1CF0F9EF1BF04C50AB
:10381000D8B40DEF1CF00FEF1CF017EF1CF0471E93
:10382000461E451E446C000E45224622472244C0D7
:1038300044F045C045F046C046F047C047F012008E
:10384000B3EC1DF0C9EC1DF0D5EC1DF03901D851D9
:10385000F80B0309D86FD88DCAA031EF1CF033EFF5
:103860001CF02CEF1CF0CAB038EF1CF03AEF1CF043
:1038700033EF1CF03901D89D000E4E6E300E4F6EA6
:10388000F20E506E460E516E000E526E800E536E4A
:10389000090E546E440E556EE6EC1AF0000E046EDE
:1038A0003C0E036E24EC1DF0010E00016A6F010E48
:1038B000696F010E596ECA82060E586E070EE82E09
:1038C000FED7582EFCD7010E076E200E086E000E94
:1038D0000A6E090E096EFAEC1CF0CFEC1DF075EFC4
:1038E0001CF0C2EC1CF082EC1CF000016A51D8A460
:1038F0007CEF1CF07EEF1CF071EF1CF026EF1CF04B
:1039000057EF00F0CAA087EF1CF089EF1CF0C1EF61
:103910001CF0CAB08EEF1CF090EF1CF089EF1CF089
:10392000CA82060E0F6E070EE82EFED70F2EFCD7AA
:10393000000E046E3C0E036E24EC1DF0110E076E9B
:10394000200E086E000E0A6E020E096EFAEC1CF0D4
:103950000B0E076E200E086E000E0A6E060E096E24
:10396000FAEC1CF0CFEC1DF0DBEC1DF0060E0F6E38
:10397000070EE82EFED70F2EFCD7CA92000E0001CC
:103980006A6F120000016951D8B4C9EF1CF0CBEF87
:103990001CF0F9EF1CF0B2905950D8B4D2EF1CF0E3
:1039A000D4EF1CF0D7EF1CF0CA82F1EF1CF0000E30
:1039B000046E3C0E036E24EC1DF00B0E076E200E01
:1039C000086E000E0A6E060E096EFAEC1CF0060E6A
:1039D0000F6E070EE82EFED70F2EFCD7CA92CFEC43
:1039E0001DF0000E0001696F1C0EB16EF20EB06E7C
:1039F000B2801200000E0E6E000E0D6E14EF1DF060
:103A00000D5007240B6E0E5008200C6E60002FF036
:103A1000F6FF600033F0F7FF000EF86E0800F55077
:103A20000BEC10F00D4A0E2A09500D5C0A500E588E
:103A3000D8A01DEF1DF01FEF1DF000EF1DF064EC8E
:103A40001DF064EC1DF012003C01FB99FB91FE514E
:103A5000E00B0809FE6FFC51E00B0109FC6F280E1A
:103A60003A01146F3C01FA8FA280A0508F0B6009BD
:103A7000A06E070E9F6EA150E00B0809A16E010E0B
:0E3A80009CEC1DF003C067F004C068F012005B
:103A90006F0060FF01F0000E3901A16F000EA26FF0
:103AA000000EA36F010EA417000EA56F000EA66FE7
:103AB000000EA76F000EA86F000EA96F000EAA6F70
:103AC000600007F0D8FF1100000E036E000E026EBA
:103AD000AAEC1DF0024A032A03BE78EF1DF0035042
:103AE00009E1030E025CD8A078EF1DF07AEF1DF01B
:063AF00068EF1DF012005A
:103AF8003901A491010E0001696F5950D8B487EFBC
:103B08001DF08AEF1DF0010E8BEF1DF0000E596EAF
:103B1800110000016A6B696B686B676B596A080E64
:103B2800D56E000ED66E000ED76E000120EF1CF089
:103B3800026E0250D8B4A3EF1DF0A5EF1DF0A8EF58
:103B48001DF06E8EA9EF1DF06E9E1200A08EA0BE15
:103B5800B0EF1DF0B2EF1DF0ABEF1DF01200000E3C
:103B68003A01406FC280C292C498CA9212003C01C6
:103B7800FA81AAEC1DF03C01FA9112003C01FA818D
:103B880064EC1DF03C01FA911200D29AD28E3901F0
:103B98009481A49112003C01FA9F000E9CEC1DF048
:103BA8001200300EB212010EB56EB39E1200000E56
:063BB8006E6EAC9E1200CF
:020000040020DA
:10000000FF0FFF0FFF0FFF0FFF0FFF0FFF0FFF0F80
:020000040030CA
:0A000000DCFFFFFF9FFFFFDFFFFFA3
:00000001FF
